:02000002F0000C
:104000000000042081A00F00A9A00F00ABA00F00AA
:10401000ADA00F00AFA00F00B1A00F000000000086
:10402000000000000000000000000000354C0F0000
:10403000B5A00F0000000000B7A00F00BD480F00A2
:10404000B54D0F00BBA00F00BBA00F00BBA00F0021
:10405000BBA00F00BBA00F00BBA00F00BBA00F00B8
:10406000BBA00F00BBA00F00BBA00F00BBA00F00A8
:10407000BBA00F00BBA00F00BBA00F00BBA00F0098
:10408000BBA00F0061700F00BBA00F00BBA00F0012
:104090001D710F00BBA00F003D470F00BBA00F001C
:1040A000BBA00F00BBA00F00BBA00F00BBA00F0068
:1040B000BBA00F00BBA00F0000000000000000002C
:1040C000BBA00F00BBA00F00BBA00F00BBA00F0048
:1040D000BBA00F00BBA00F00BBA00F00218A0F00E8
:1040E000BBA00F00BBA00F00BBA00F000000000092
:1040F00000000000BBA00F0000000000BBA00F00EC
:1041000000000000000000000000000000000000AF
:10411000000000000000000000000000000000009F
:10412000000000000000000000000000000000008F
:10413000000000000000000000000000000000007F
:10414000000000000000000000000000000000006F
:10415000000000000000000000000000000000005F
:10416000000000000000000000000000000000004F
:10417000000000000000000000000000000000003F
:10418000000000000000000000000000000000002F
:10419000000000000000000000000000000000001F
:1041A000000000000000000000000000000000000F
:1041B00000000000000000000000000000000000FF
:1041C00000000000000000000000000000000000EF
:1041D00000000000000000000000000000000000DF
:1041E00000000000000000000000000000000000CF
:1041F00000000000000000000000000000000000BF
:1042000010B5054C237833B9044B13B10448AFF310
:1042100000800123237010BD5481002000000000A5
:10422000A4B00F0008B5034B1BB103490348AFF31B
:10423000008008BD0000000058810020A4B00F00DD
:10424000154B002B08BF134B9D46A3F5803A002168
:104250008B460F461348144A121A00F063F80F4BAE
:10426000002B00D098470E4B002B00D09847002021
:10427000002104000D000D48002802D00C48AFF3C7
:10428000008000F02BF82000290000F0A7F800F0D3
:1042900011F800BF0000080000000420000000002A
:1042A0000000000054810020F8C70020000000003A
:1042B0000000000008B5074B044613B10021AFF31E
:1042C0000080054B1868836A03B19847204600F0C8
:1042D00031F800BF0000000004AD0F0070B50D4EB6
:1042E0000D4CA41BA4100025A54209D10B4E0C4C6B
:1042F00006F0FCFCA41BA4100025A54205D170BD4E
:1043000056F8253098470135EEE756F8253098479E
:104310000135F2E74C8100204C8100204C810020C7
:104320005081002002440346934200D1704703F8B5
:10433000011BF9E7FEE700BFBFF34F8F0549064BAE
:10434000CA6802F4E0621343CB60BFF34F8F00BF33
:10435000FDE700BF00ED00E00400FA054BDF704709
:1043600010DF704711DF704713DF704718DF7047A9
:1043700060DF704769DF704761DF704708B5034B46
:104380001B68DB0700D500BEFFF7D6FFF0ED00E0AD
:10439000014B1878704700BF718100201FB50023C2
:1043A00004A8CDE901330393022340F8103DFFF741
:1043B000DDFF05B05DF804FB08B5032000F044FB09
:1043C0004FF46D2000F04EFD43F20803186800F032
:1043D00049FD0420BDE8084000F036BB2DE9F04758
:1043E0004FF0804386B0D3F81C95D3F81C25A9F173
:1043F000B10467426741B12A00F02881D3F81C4517
:10440000A4F1A800444244419B4D9C4E04F001039A
:104410002B704FF08043D3F81C857CB9B8F14E0F58
:104420000CD0D3F81C25572A08D032681168944A5A
:10443000914209D1D3F80034D90705D54FF0804314
:104440000022C3F81C2501248E4B40F20D22C3F834
:1044500040258D4B1B68B3F5742F02D0002003F06C
:1044600011F900F055FA00F05BFE002000F0ECFAC4
:1044700000F0CAFE78B1052000F0E6FA00F0D6FEA2
:1044800008B103F0FFF800F0F7FE08B103F0FAF806
:10449000062000F0D9FA1CB91D2000F069F9044685
:1044A0002B78002B40F0D4801D2000F061F910B172
:1044B000222000F05DF900F0010043F208032870AB
:1044C000186800F075FD824644B938B133686C4A0B
:1044D0001A606E4B6E4843F0010398473368002220
:1044E0001A601CB9BAF1000F40F091802C78002CB2
:1044F00000F0B480082000F0A7FAB9F1B10F01D0A4
:10450000FFF74CFF4FF47420FFF72EFF08B103F0C4
:10451000B9F8604B60491868019001A8FFF720FFC7
:1045200008B103F0AFF85D4991F816335A09EC234E
:104530001341DA0708D55A4B9A68002A00F08A809E
:104540001A6842F480021A600C22564B0293002132
:104550000DEB0200FFF7E6FE40F20113029A03930F
:1045600003A94020FFF706FF08B103F08BF80C22E7
:1045700000210DEB0200FFF7D5FE9DF80C30029AEA
:1045800043F0010303A9A0208DF80C30FFF7F2FEE1
:1045900008B103F077F80C2200210DEB0200FFF7C1
:1045A000C1FE01238DF80C30029AF72303A92320C2
:1045B000ADF80E30FFF7DEFE08B103F063F80C2211
:1045C00000210DEB0200FFF7ADFE01238DF80C304A
:1045D0008DF80E30029A062303A92020ADF8103082
:1045E000FFF7C8FE08B103F04DF802A8FFF7C0FEC0
:1045F00008B103F047F827460021287800F0A8FD0D
:1046000008B103F03FF82B7893B3FFF7ABFE1D2002
:1046100000F0AEF828B9222000F0AAF808B1FFF7A0
:10462000CBFE00F079FA43F20803186800F0C0FCF2
:1046300050B100F0E9FD38B90FB9FFF7AFFE43F212
:104640000803186800F0B8FDFFF776FE0124DBE6EA
:10465000012030E74FF480030B6075E7022000F083
:10466000F3F9A8F14E035842584103F0B7FCC3E7F1
:1046700003F020FDCBE700BF7181002064800020A3
:10468000D51A5A0000A000401410001010AD0F0001
:104690000048E80108AD0F007D430F0000E100E095
:1046A000E8C600200080002010B5FEB04FF4FA7379
:1046B0000DF1020101A8ADF80230FFF75DFE0446DE
:1046C00040B9BDF80430102B07D0112B0CD001A835
:1046D00001F05AF820467EB010BD054B01221A7039
:1046E000072000F0B1F9F2E7014B18700820F8E755
:1046F0007081002013B501A8FFF730FE044660B9B1
:10470000019801F075FF019B0A2B09D0092B09D0F4
:104710000B2B02D1012004F0E7FA204602B010BDB5
:104720002046F8E70220F6E708B5FFF7BDFF0528A9
:10473000FBD1FFF7DFFF0528F7D108BD0021024AB2
:10474000084602F007BF00BF29470F001F2884BF9B
:1047500000F01F00044B054A98BF4FF0A04300F53E
:10476000E07043F820207047000300500C00030065
:104770001F288ABF064B4FF0A04300F01F00D3F85C
:10478000103523FA00F0C04300F00100704700BF6D
:104790000003005000234FF0FF328360C0F8003563
:1047A000C0F86025C0F86425C0F86825C0F86C25FD
:1047B00040F2FF32C0F80435C0F80825C0F80C35C7
:1047C000C0F81035C0F81435C0F82035C0F82435CD
:1047D000704700001B4B00221F2930B5C3F800258D
:1047E0008BBF01F01F030B46174A4FF0A04203F5A1
:1047F000E074032542F82450012404FA03F3C2F8BC
:104800000C3500F5AC700F4B002243F82010FF214F
:10481000C3F804250220C3F808150421C3F80C15B9
:10482000C3F810050948C3F81425C3F82005C3F8D8
:104830002415C3F82825C3F82C25C3F80045C3F870
:10484000102130BD00C001400003005068830020EB
:104850000148FFF79FBF00BF00C00140074B23F88E
:104860001010074B00221A6082B01B680193019B55
:10487000044B01221A6002B0704700BF6883002019
:1048800010C1014008C001400A4B1A680A4B1B685E
:10489000B3FBF2F1500802FB1133834288BFD31AF5
:1048A0004F215943B1FBF0F1C1F1FF0189B2002062
:1048B000FFF7D4BFA483002064830020024A13685A
:1048C00001331360FFF7E0BF648300200F4B002229
:1048D0001421C3F80C25C3F80425C3F80815C3F840
:1048E0001425C3F81025C3F82825C3F82C25082261
:1048F000C3F860254FF0FF32C3F86425C3F868257C
:10490000C3F86C250122C3F800257047001002404F
:104910004FF0804310B501220024DA601D20C3F857
:1049200018459A60FFF712FF2220FFF70FFF164B82
:104930004FF4C85043F00103984706212046FFF783
:1049400049FFFFF7C3FF114A1E21082002F0DEFDD8
:1049500008B102F097FE02F043FD0D490D4BE02037
:1049600081F823001B684FF47A72B3FBF2F3013B2A
:10497000B3F1807F07D2084A5360002381F82300F7
:1049800093600723136010BD20AD0F0074810020D9
:1049900000ED00E03081002010E000E0F0B585B0CF
:1049A00043788DF8043083788DF8053003782348F8
:1049B0008DF80630002101AE48F20D0748F2060CD2
:1049C0008AB2D3000132D20011F806E09BB292B253
:1049D00080251EEA050F14BF3C46644620F81340AC
:1049E0005C1CA4B294424FEA550524D1013103293D
:1049F000E6D102339BB24FF4004120F8121020F8A8
:104A000013100F4B1A22C3F82005C3F8242503F511
:104A1000887300221A601A680292029A094A0121D8
:104A200011601A68002AFCD000221A601B680393E8
:104A3000039B05B0F0BD2346CBE700BF7083002089
:104A4000001002400810024037B5214C00222568B2
:104A50000095019208281AD8DFE800F00C050C191F
:104A60001913082A2C004FF47F430093194B40F68A
:104A7000B8320BE04FF47F0300934FF49672154B5E
:104A800004E04FF47F030193124B64221A60009BF1
:104A90001149019A0B4000937AB102A80A400F4BCA
:104AA00040F8042D01221A70FFF778FF03B030BDE3
:104AB000FF23DAE74FF0FF13DEE79D4202D02360C9
:104AC0006846F1E7054B1B78002BEFD00048EBE779
:104AD000A8830020A483002004040400AC830020E9
:104AE00013B50B4C0023ADF804308DF8063044F0BC
:104AF00001044FF44860A04701A8FFF74FFF4FF4AF
:104B00004860A0470348FFF745FE02B010BD00BF54
:104B100020AD0F000010024008B50E4B00221A60B5
:104B2000FFF796FEFFF7DCFF0B4B4FF40032C3F8A4
:104B3000802003F1C04303F53C534FF48032C3F8A7
:104B40004823C3F8082301225A609A604FF080433B
:104B5000DA6008BD10E000E000E100E038B50C4C80
:104B600021684B1C054612D04FF48052094805F0CD
:104B700025FC48B115B1206800F074F94FF480624B
:104B80000449206800F086F94FF0FF33236038BDF8
:104B900068800020B08300202DE9F0410F4E904640
:104BA00020F47F64326824F00F04A24205460F46C9
:104BB00009D01846FFF7D2FF4FF48052214608482B
:104BC000346005F00AFC0648C5F30B054246394639
:104BD0002844BDE8F04105F000BC00BF688000201B
:104BE000B083002038B50C46F8B90968D9B1104A2D
:104BF000914215460CD0531A3B2B12D93C22284621
:104C000005F0EBFB04E0C85CD05413F1FF33FAD29B
:104C100000223C21064802F07DFD0023A887236086
:104C200038BD3D23F1E70E23F9E70123F7E700BF85
:104C3000807F00206FF00203064A9E4502D1EFF309
:104C4000098101E0EFF308818869A0F10200007892
:104C5000104700BFE54B0F0038B50546A8B10D4C15
:104C600000223C21204602F055FDA38F83420ED145
:104C7000224604F13C0152F8040B45F8040B8A4229
:104C8000F9D10133A387002038BD0E20FCE70B20AB
:104C9000FAE700BF807F00200B2970B50446154657
:104CA00030D90389053300EB43030144CA1AD2B259
:104CB000012A27D98B4225D81946134805F08DFBC8
:104CC0002388522B06D1AB0711D062884CF668635B
:104CD0009A420CD00F2014E034F8022B824204D008
:104CE0002E88964203F1010308D1002009E02189B2
:104CF00000230A344FF6FE7043F20C059942EBD8BC
:104D00000B2070BD0920FCE7B093002008B50022FD
:104D100002F000FD044A5178137843EA01239842D7
:104D200014BF0B20002008BDB093002000F1804389
:104D30001A68002A1BBF0022012000201A60704759
:104D40000F4B1A78D2B902784FF08041C2F340027B
:104D5000C1F88025027802F00102C1F87825094ADD
:104D60001168C90706D4E02182F800130121C2F8B6
:104D70008011116001221A70034870470348704780
:104D8000E4C6002000E100E00000AD0B0C00AD0B1C
:104D9000034B00221A60026802B11A60704700BF1C
:104DA000C49300204FF080434FF46072C3F8042393
:104DB0007047000010B54FF08043D3F804436207FA
:104DC00007D54FF48470FFF7B1FF10B11E4B1B687D
:104DD0009847A30608D54FF48A70FFF7A7FF18B1CC
:104DE0001A4B00201B689847600608D54FF48C705A
:104DF000FFF79CFF18B1154B01201B68984721064F
:104E000008D54FF48E70FFF791FF18B1104B0020BA
:104E10001B689847E20508D54FF49070FFF786FFAE
:104E200018B10B4B01201B689847A3050AD54FF416
:104E30009270FFF77BFF28B1054B02201B68BDE88D
:104E40001040184710BD00BFBC930020C093002045
:104E5000C4930020024AD2F80034002BFBD07047E4
:104E600000E001400A4908B50223C1F80435BFF348
:104E70006F8FBFF34F8FC1F80805FFF7EBFF0023DB
:104E8000C1F80435BFF36F8FBFF34F8F08BD00BF6C
:104E900000E001400E4B10B50124C3F80445BFF3F8
:104EA0006F8FBFF34F8F01EB8204401AA14208D1EC
:104EB000074B0022C3F80425BFF36F8FBFF34F8F5A
:104EC00010BD431851F8042B1A60FFF7C3FFEDE73C
:104ED00000E0014011DF704713DF7047064B187880
:104EE000012803D1012904BF0221197012B1104613
:104EF00002F0C8BB704700BFF493002070B5124C9D
:104F0000124D134ED4F800347BB1C4F80056C4F8E7
:104F10000456C4F80856C4F80C56C4F81056C4F821
:104F20001456C4F81856C4F81C5602F079FB05F064
:104F3000A1F820B104F0A0F8002004F0B7FB33780A
:104F4000023B022BDED870BD000001403546526E98
:104F5000F493002008B5FFF71BFA88B11C21114813
:104F600001F0E2FB08B102F08DFB00231C220E4988
:104F70000C4801F0C9FB98B1BDE8084002F082BBC3
:104F80004FF47F20FFF76EFF072207494FF47F2081
:104F9000FFF780FF054B1A78012A04BF02221A701E
:104FA00008BD00BFEC930020F8930020F49300208C
:104FB00007B50368013303D1002003B05DF804FB9B
:104FC00001A800F087F9019B1A88012AF4D15888BA
:104FD00030B1996843F208030022186802F09AFB86
:104FE000019B5B881B1A58425841E6E784B02DE9C3
:104FF000F34108AC84E80F009DF82040BDF8228002
:105000000B9D01A8DDE9097600F064F954B9384B2D
:105010000122FF21A3F802809D601A809980354B00
:105020001A7012E0012C17D1314BBA192A449A6038
:10503000A5221A80FF229A800C9AA3F80280C3E965
:1050400003765D619A612B4B1C70FFF783FF02B002
:10505000BDE8F04104B07047032C0FD1019A244BF6
:1050600011881980518892689A60C3E90376AA2250
:1050700059809A805D611F4B0122D1E7022C15D126
:10508000019A1B4B1188A5290AD100229A60FF22A0
:105090001A60FF229A800022C3E903225A61EAE7DC
:1050A00019805188926859809A60F2E7052C0ED1D8
:1050B000FFF76EF940B100F041FD08B102F0E2FAED
:1050C0000C4B03221A70C2E700F0FAF9F5E7042C42
:1050D00008D1074B00229A60FF221A60019A928839
:1050E0009A80B2E7062CB2D1024B0422EAE700BF55
:1050F000F8930020F493002000B5084B1B7889B08A
:1051000043B905238DF80C30079B009303AB0FCBFD
:10511000FFF76CFF09B05DF804FB00BFE8930020C7
:105120001FB50023CDE90233074B019301F0B4FA18
:1051300030B906494FF47F2301A84B6001F0D0FA43
:1051400005B05DF804FB00BFDD4E0F00EC930020BE
:1051500070B505460E4600F07FFF044628B935B10C
:1051600000F048FC0446FFF7C9FE204670BDBEB102
:105170000D4B0E4A0E481D70294602F061F94FF49E
:1051800000444FF4FA7000214FF47A720023E4FBDC
:10519000060104F093FF2A460146064802F062F930
:1051A00000F06AF9DEE700BFE8930020F9500F0035
:1051B00028AD0F00C893002038B5FFF78BFE08B16B
:1051C00002F060FA0F490D680023012404FA03F28B
:1051D0002A4207D05A0903F01F00203204FA00F0D7
:1051E00041F822000133302BF0D143F2080420684B
:1051F000FFF772FE08B102F045FA2068BDE83840BA
:1052000000F08CB800E100E007B501A800F062F8FA
:10521000019B1A88A52A07D09888A0F1AA035842B2
:10522000584103B05DF804FB0120FAE710B501F026
:1052300037F9A8B10E4B0F4843F00103984701F02E
:10524000AFF808B102F01EFA01F02AF908B102F035
:1052500019FA01F0EDF8044638B102F013FA04E04F
:1052600001F000F904460028E4D1204610BD00BF3B
:1052700030AD0F0000A8610000B589B003AB142267
:1052800000211846FFF74EF802228DF80C2000226C
:1052900000920FC8FFF7AAFEFFF730FE002009B00A
:1052A0005DF804FB13B5044601A800F013F8019B58
:1052B0001A8822805A8862809A68A2609A88A2809E
:1052C000DA68E2601A6922615A6962619B69A361C6
:1052D00002B010BD014B0360704700BF00F00F002B
:1052E000F0B50346186880F308885868FF2464B254
:1052F000EFF30585002D01D1A64600472546064659
:1053000021273FBAF0B40024002500260027F0B47E
:10531000F92040B2004700BFF0BD00BFFFF7E0BF7B
:1053200073B500230DF1020101A8ADF8023001931D
:1053300002F028FEF8B9019C25785DB3174B93F86D
:105340003020032A28D00C2606FB00F29958E9B930
:1053500098189D5093F830200132D2B283F8302053
:10536000BDF802300E4A9B08013B04344360846060
:10537000084602F0EFF8019B33B128B1184602F05D
:105380001DFE08B102F07EF902B070BD01300428A4
:10539000DAD1F0E70720EEE70420ECE714940020D0
:1053A000E9530F0011B1084602F06CB970470000D4
:1053B00010B50C230B4A4343D418D15881B192F84D
:1053C0003010A0680139C9B282F830100021D150E4
:1053D000C4E90111043802F0F1FD08B102F052F9FC
:1053E000002010BD14940020F8B5214B214E01225D
:1053F0001A7035460C2796F8303003B9F8BD0024F2
:1054000007FB04F3EA5882B1013AE818042A06D8E7
:10541000DFE802F019050F03240000F0BFFEE0B240
:10542000FFF7C6FF08B102F02DF90134042CE7D1D3
:10543000E1E72B449A685A6000F05AFE0028EED04B
:1054400002F020F9EBE700F031FF00F00DFF08B1AA
:1054500002F018F90520FFF7F7FAE0E700F056FF31
:1054600000F078FF0620BDE8F840FFF7EDBA00BF76
:10547000E89300201494002008B50E4B002283F816
:10548000302003F130011A60C3E901220C338B4252
:10549000F9D1094800F026FE02F00CFD08B102F037
:1054A000F1F8064802F0F2FC08B102F0EBF8002037
:1054B00008BD00BF14940020A5530F0021530F0016
:1054C00008B50020FFF774FF0120FFF771FF0220ED
:1054D000FFF76EFF0320FFF76BFFBDE8084002F007
:1054E00031BD006870476CDF70476DDF70476EDF5D
:1054F00070476FDF704772DF704773DF704774DF8C
:10550000704776DF704777DF70477ADF70477CDF60
:1055100070477FDF704786DF70478FDF704790DF0F
:105520007047AFDF7047B0DF7047B1DF7047B2DF61
:105530007047B5DF704764DF704766DF70470C283F
:1055400013D8DFE800F01412121212120912071217
:10555000120D0B0002207047032070470420704793
:1055600004290CBF05200620704706207047012043
:10557000704702F087B810B5044608460321FFF7CC
:10558000DEFF03210246204601F098FA18B1BDE87B
:10559000104002F077B810BD032810B50B46144632
:1055A00020D0042825D169B1124B18884FF6FF731B
:1055B00098421ED01321FFF7A4FFD0B1BDE81040E0
:1055C00002F060B8104602F001F908B102F05AF892
:1055D000094B1B689C420CD101220321074801F0B2
:1055E0006DFAEAE701211846FFF7A9FF01210246FB
:1055F000F4E710BD6E80002008950020B8940020CC
:10560000F8B50A4CA3889E181D2E15460DDC276898
:10561000FE1802F1010C07F803C07070B01C04F012
:10562000DCFEA28802322A44A280F8BD68940020E1
:10563000F0B54A4D2C7893B0002C40F08A80484E4B
:10564000102221463046FEF76DFE464B336018228D
:1056500021460CA8FEF766FE28230E93424B1B78CA
:1056600001278DF8307006AE002B74D021463F4CD8
:10567000102202A8FEF756FE102202A9E01D04F037
:105680009DFE002867D03A4839460460FFF72FFF97
:1056900008B101F0F7FF374B374603F1100C1868DB
:1056A00059683A4603C2083363451746F7D1206864
:1056B000A2880A903048A379ADF82C20002101225D
:1056C0008DF82E300660FFF714FF08B101F0DAFF05
:1056D00003238DF8443004238DF8063041F2305313
:1056E000ADF80830254B32469B798DF80A300DF124
:1056F000070102A8FFF71FFF012210460DF1060166
:10570000FFF77EFF1E4804F0ADFE1D49C2B209201E
:10571000FFF776FF102231460620FFF771FF0CAA33
:105720000F491848FFF7E7FE08B101F0ABFF154C31
:10573000042221780120FFF7E6FE08B101F0A2FF64
:1057400001212078FFF7D9FE08B101F09BFF01236A
:105750002B7013B0F0BD0623BEE700BFEC94002011
:105760006894002048940020B4940020789400208D
:10577000049500207F940020E8940020B894002035
:1057800036AD0F006C800020F0B504460146B1B084
:105790008E4801F0C7F92388212B00F0048142D8FC
:1057A000112B00F09C8007D8012B00F0BE80102B3D
:1057B00000F08E8031B0F0BD142B00F0D4801A2B95
:1057C0005BD0132BF6D1824B03AC9A791868998879
:1057D0008DF822200790DA1DADF8201017332646E9
:1057E00010685168254603C508329A422C46F7D105
:1057F000784B09AA03F1180715461868596814462A
:1058000003C40833BB422246F7D1186820607248AF
:10581000724A008810AB8521CDE91456FFF779FE56
:105820000028C7D0B5E0512B00F085801ED8232B6F
:1058300000F0B280262BBDD1237A012BBAD1684B60
:1058400000221A70674B196801391960002969D163
:1058500010AB14221846FEF765FD05228DF8402096
:10586000149A00920FC8FFF7C1FBA3E7552B00F075
:10587000A380562B4CD0522B9CD1574B1C884FF6F3
:10588000FF75AC4200F08480574B1B78002B79D019
:105890000123082255492046FFF747FE002878D10A
:1058A0000246014602232046FFF73FFE002870D142
:1058B0002A460C212046FFF734FE43F202039842A9
:1058C0003FF478AF08283FF475AF1128A8D171E7ED
:1058D000414BA2881A80424B00221A706AE730AA14
:1058E000802322F89C3D3C4C3E4B2088322119609D
:1058F000012310A9FFF71BFE08B101F0C3FE3C4BCA
:105900001B780BB9FFF794FE4FF6FF73238051E726
:10591000A379002B7FF44EAF2F4B13211888FFF78C
:10592000F0FD7DE7FFF784FE44E72B4B002118884C
:10593000FFF703FE74E7A379002B3FF43BAFA27B94
:10594000043A022A3FF636AF022B18BF01238DF826
:1059500040304FF4C173ADF844301F4B10A9188884
:10596000FFF7E1FD5CE71A4A258A518D02F1180024
:1059700000238D420CBF014619460732A088FFF76D
:10598000CAFD4DE71A4619462046FFF7CEFD47E708
:10599000082001F077FE0DE70F4B00221146188812
:1059A000FFF7BDFD3CE730A9002321F8803D0A4BFD
:1059B0001888FFF7B2FDFDE6E188074BF72928BFFD
:1059C000F7211888FFF7B5FD2AE700BFB89400203B
:1059D00078940020909400206E800020FA9400209B
:1059E000EC94002070800020B4940020AC9400203F
:1059F000FF94002030B5434A434800231370434AC4
:105A000095B0137000F06EFB01F0A0FE0546002873
:105A100062D13F48FFF720F9002860D13D4B0122B9
:105A20001A7014AC112304F84C3D3B4804F01AFDE5
:105A3000394982B22046FFF76AFD08B101F022FE23
:105A40000822002104A8FEF76DFC344A4FF0C87309
:105A500004A8CDE90423FFF758FD08B101F012FEB8
:105A600000210C222046FEF75DFC0823ADF804302F
:105A70002B4B029321462B4B2B48039300F06CFEDB
:105A800008B101F0FFFD294C4022002104A8FEF7D7
:105A900049FC204604F0E6FC0594254CADF81000C6
:105AA000204604F0DFFC0794224CADF81800204695
:105AB00004F0D8FC1123ADF8300004A8ADF84C3048
:105AC0000D9401F049F91C4B30221A7007225A70CC
:105AD00010229A70FFF7ACFD284615B030BD04A81F
:105AE000FFF703FD08B101F0CDFD9DF8113004A8CA
:105AF00001338DF81130FFF7F6FC002891D001F04A
:105B0000C1FD8EE7FF94002099550F00F994002005
:105B100078940020B494002036AD0F0008001800DF
:105B20008D5B0F0073550F00B89400203DAD0F0042
:105B300051AD0F006CAD0F00FA94002010B50F4B63
:105B400001221A700E4B18884FF6FF73984207D047
:105B50001321FFF7D6FC08B101F094FD002010BD21
:105B6000084C2278002AF9D0074B1878FFF7C7FCB9
:105B700008B101F087FD00232370EFE7FF940020B8
:105B80006E800020EC9400206C800020F0B50B7833
:105B900089B005460C46092B23D8DFE813F02B000B
:105BA000330042000A0018002400FD0006014500F1
:105BB0000B0100F0ABFB0421FFF7C1FC04210246FE
:105BC000284600F07BFF60B101F05CFD09E0FFF7C3
:105BD000B5FF08B101F056FD00F0BCFB08B100F0C4
:105BE000D1FB09B0F0BDFFF7A9FF0028F7D001F005
:105BF00049FDF4E7724B01221A704B681A78714B19
:105C00001A70EEE76E4B02261E704B681B78012B54
:105C1000E7D100F029FB3146FFF791FC02463146FF
:105C2000CEE7674B0322EBE70520FEF70DFF644B41
:105C30001E78022E2AD0032E4ED0012ED1D104ABD5
:105C4000102218460021FEF76DFB5E4A237A127877
:105C50008DF81020002203920C2B4FF00302CDE9A7
:105C60000120DCD163681846FFF73BFC0590181D46
:105C7000FFF737FC069003F10800FFF732FC0790AE
:105C800001A800F035FA0028ABD0C4E7237A13F05E
:105C900003010FD00022C1F1040194469818164662
:105CA000C0B267680132914207F800C0F6D10133F3
:105CB000334423720123049363680693237A04A870
:105CC0009B08059300F0F2FA00288AD00221FFF722
:105CD00036FC0221024673E7207A830702D032465F
:105CE00031466DE7384E0190314601F045FD0146E1
:105CF00018B12846FFF73FFC73E76168019A3068E6
:105D000004F06BFB019801F09FFD01460028F0D1E3
:105D100001A9304601F0A8FD01460028E9D104237D
:105D20000493019B9B08059304A83368069300F035
:105D300035FA074640B9254A237A11680B441360A7
:105D4000234B32681A604CE709281BD11F4B217A7C
:105D50001A68114419601F4B1B78002B3FF441AFA8
:105D60001D4C2388013B9BB22380002B7FF439AF6D
:105D7000284600F069FE08B101F084FC174B1B882F
:105D800023802EE7306801F021FD014610B128463E
:105D9000FFF7F1FB3946ACE70E4B01221A700F4AB0
:105DA0008B8813800C4A13801BE70A4A0023137068
:105DB0000A4AF8E7054B196800F00AFE03E700BF3E
:105DC000F9940020009500200C950020F09400200C
:105DD00008950020F8940020F6940020F494002008
:105DE00018DF70470129F8B50D4614461F4607D045
:105DF000032912D014B32046BDE8F84001F042BC9C
:105E00000F4B1B78052BF5D10E4B1B68002BF1D0E7
:105E10003A46214604209847ECE7094E3378022B96
:105E2000E8D1094B5B689847064B35701E68002E19
:105E3000E0D03A4621462846B047DBE7F8BD00BF30
:105E400018950020109500203C95002000B5084BC7
:105E500089B001221A7005238DF80C30079B00933E
:105E600003AB0FCBFFF7C2F809B05DF804FB00BF2E
:105E70001995002000B589B003238DF80C300A4B2A
:105E80001B88ADF80E30094B5A6804929A68DB689B
:105E90000693079B0093059203AB0FCBFFF7A6F881
:105EA000002009B05DF804FB48950020949500207F
:105EB00000B589B001238DF80C300B4B1B88ADF871
:105EC0000E3043F208031A68084B59680491996828
:105ED000DB6806930591009203AB0FCBFFF786F8C2
:105EE000002009B05DF804FB48950020949500203F
:105EF00000B589B003AB142200211846FEF712FA50
:105F000004228DF80C20002200920FC8FFF76EF8D3
:105F100009B05DF804FB000030B589B003AC142271
:105F200000212046FEF7FEF9094B1B88ADF80E3024
:105F3000084BDB6806930025079B8DF80C500093F7
:105F400094E80F00FFF752F8284609B030BD00BFB3
:105F50004895002094950020174B73B5174C1C6092
:105F6000174B02221A70FEF713FA164B48B1196844
:105F7000204600F0D9FBB0B102B0BDE8704001F09E
:105F800081BB1B681D0BC3F30B0303B10135002458
:105F900043F20806A54208D1002300931A460321C4
:105FA0000648FFF71FFF02B070BD306800EB0430F9
:105FB000FEF758FF0134EDE7AC950020A4950020D2
:105FC000189500204C95002010B50B4B1B788BB911
:105FD0000A4801F08BFA08B101F054FB00224FF49B
:105FE0001601064801F03EFA044608B101F04AFBEA
:105FF000204610BD0824FBE7199500201C950020C1
:106000007FB50C4603210546CDE900109608684689
:1060100002940396FFF7E4FED8B1B4F5805F11D87F
:1060200001236846CDE90035CDE90246FFF7D8FEE9
:1060300078B903236846CDE90035CDE90246FFF77C
:10604000CFFE06E01A46E11AE81AFFF7D9FF00284A
:10605000E6D004B070BD0000F0B585B004A8184BC0
:1060600040F80C3D174B184F184E00241C70184B6D
:106070003946CDE902441C8000F032FB054618B1D8
:106080003470284605B0F0BD43F2080301461B6892
:10609000104A11487B6001F0D3F908B101F0F2FA1F
:1060A00000224FF416010D4801F0DCF908B101F0AF
:1060B000E9FA0B4B00221A6001233370E1E700BFBD
:1060C000E55D0F0090950020A49500201895002014
:1060D000489500204D5E0F0084AD0F001C950020F8
:1060E00014950020014B1860704700BF10950020E8
:1060F00070B54368204C0FCB84E80F00227851071D
:1061000001D5930731D163689E072ED1A1688D0711
:106110002BD1E068840728D10B44184E0344B1F515
:10612000304F336023D843F208010968C1F56D216F
:106130008B421CD8124D134B2B60D107124B6B6056
:106140000ED5124BAB60124B1B78012B11D1FFF710
:106150003BFF044610B92B6830689847204670BD55
:1061600093074CBF0B4B0C4BECE70624F6E70C24D3
:10617000F4E70824F2E700BF949500204C95002036
:106180003C950020595F0F00F15E0F00B15E0F00DB
:1061900018950020755E0F00195F0F002DE9F34779
:1061A0008046002850D083689B074FD12A4B1B782C
:1061B000052B4DD1294F4568294E3B683268AD000B
:1061C0002B449342B94607D94FF0FF333B600C2470
:1061D000204602B0BDE8F087FFF7F6FE044600282F
:1061E000F6D1D8F80880DFF87CA0FEF7D1F848B1E6
:1061F0003B68DAF800002A46414600F085FAA0B173
:106200000446E5E743F20803D9F800001F682A4670
:10621000234641463844FEF7BFFC009543462246DC
:106220000121DAF80000FFF7DDFDD9F800301D4448
:106230003368C9F800509D420CD1FEF7A9F8002838
:10624000C6D1FEF78BFCC3E70E24C1E71024BFE7DD
:106250000824BDE70924BBE7189500201495002009
:106260004C950020AC95002070B50B4B1D6885B98E
:106270000A4E3378042B0CD1094C0A4B21781A783A
:106280000948FEF709FD10B90523337070BD25706C
:10629000FCE70820FAE700BF1495002018950020BD
:1062A000909500209495002050950020F8B5134B50
:1062B0001A78032A074603D0042A03D0082419E0D9
:1062C00004221A700E4B1B68002BF7D1FFF77CFEDF
:1062D000044678B90B4E7D683378AD005A19402AD0
:1062E0000AD80948B9682A46184404F076F8337881
:1062F0001D4435702046F8BD0924FBE718950020A1
:1063000014950020909500205095002038B50D4C34
:106310002378052B14D10C4B0C4D1A682B689A422C
:106320000ED106232370FFF74FFE40B9084B2968B2
:106330001B685868FEF7EAFC08B90723237038BDCC
:106340000820FCE718950020149500204C950020AB
:10635000AC95002010B5084B1B78072B0AD10748D5
:1063600001F0C4F808B101F08DF9054BBDE810400B
:106370009B681847082010BD189500201C95002028
:106380003C95002000B589B006238DF80C30079BA2
:10639000009303AB0FCBFEF729FE09B05DF804FBB9
:1063A00010B58CB005A8FEF77DFF089A002A3BD0F7
:1063B0000B9C02F58053A3422AD91C49A4F58053B3
:1063C00001EA530343F2080109688A4208D85800D9
:1063D000121A00F580512044FFF712FE0CB010BDD8
:1063E00003F580500121CDE90110CDE9030101A899
:1063F000FFF7F6FC0028F1D14FF48050CDE9020000
:1064000001A801910491FFF7EBFC0028E6D1DEE73B
:106410000123CDE9013492084FF4805301A803937E
:106420000492FFF7DDFCD9E71046D7E700F0FFFF45
:1064300000B58DB005A8FEF735FF099860B1089B3F
:106440006BB943F208031B6880080022039001A87F
:10645000CDE90123FFF7C4FC0DB05DF804FB0B9AF6
:106460001344F1E700B58DB005A8FEF71BFF0998AE
:1064700078B1089B83B943F208031B680393800833
:1064800003214FF47422049001A8CDE90112FFF713
:10649000A7FC0DB05DF804FB0B9A1344EEE7000077
:1064A00030B58DB005A8FEF7FDFE0898A8B10B9C8D
:1064B00000F58053A34212D943F208031B689842A7
:1064C00019D80E4BA4F5805203EA52035D00421B1B
:1064D00005F580516019FFF793FD0DB030BD8008C0
:1064E00003224FF48053049001A8CDE901230394C3
:1064F000FFF776FCF1E70E20EFE700BF00F0FFFFAB
:1065000029DF704728DF704737B50B460C465A68BD
:1065100014F80C1BDD680092044A5B6952F82550A0
:1065200002462046A84703B030BD00BFB09500200A
:1065300038B5184C2378182202FB03431A795D6999
:10654000012A03D0032A18D00F2015E0124A9969B6
:1065500010689A68DB680003121AB2F5805F1D4468
:10656000014438BF9208284428BF4FF48062FFF7E7
:10657000C7FF08B90123A37038BD4FF080531869D5
:10658000054B80B2B5FBF0F518682844FFF7BAFF59
:10659000EFE700BFC0950020B896002070B5134DFE
:1065A0006C780A2C1FD02E783444E4B2092C84BFB6
:1065B0000A3CE4B2182606FB0454A261207103C908
:1065C000A360049BE360AB7804F1100282E803004F
:1065D00023B100206B7801336B7070BDFFF7A8FF0B
:1065E0001128F7D1F5E70420F7E700BFC095002098
:1065F000F8B527498B780C462BB1002602288E70FF
:1066000002D003283AD0F8BD0D78224A182101FBA8
:106610000541136889680133B1EB033F13601BD850
:1066200063781660013B63706B1CDBB2182704268D
:10663000092B17FB056188BFA5F109032144002040
:106640002370FFF761FF07FB05430022C3E90462E3
:106650001A719A609A61DA606378002BD3D0A378BC
:10666000002BD0D1FFF764FF0028CCD01128CAD06E
:106670002178182303FB0141043105E00B7818222F
:1066800002FB031104310D20BDE8F840FFF73CBFC9
:10669000C0950020B89600200D4A002313600D4AD3
:1066A00004201380937002F1F001137193609361E1
:1066B000D360C2E9040318328A42F6D1064A136055
:1066C000064A0020C2E90033C2E90233704700BF26
:1066D000B8960020C0950020B4960020B095002008
:1066E000074A1368042B1FBF0B60591C1160054A31
:1066F0001DBF016842F8231000201846704700BFF4
:10670000B4960020B095002013B5CC180C43A40714
:1067100008D1009313460A4601460120FFF73EFFC9
:1067200002B010BD1020FBE707B500220B46009217
:1067300001460320FFF732FF03B05DF804FBA8DF3A
:106740007047AADF7047ADDF7047AEDF7047B0DF3C
:10675000704762DF704700002DE9F0470F4694B0A4
:106760000546002800F02E81002900F02B814B689F
:10677000002B00F027814FF6FF730380924B04AA91
:1067800003F1100C164618685968144603C4083300
:1067900063452246F7D114AB41F230520DF10A01A4
:1067A000304623F8482DFFF7D4FF0446002840F078
:1067B00005812A1D19460120FFF7C1FF0446002864
:1067C00040F0FC809DF80A30AB7101461C220DA8F8
:1067D000FDF7A8FD9DF834300E9443F004038DF8C6
:1067E000343001AEAB798DF80E30214641F2325390
:1067F00003223046CDE91044CDE91244ADF80C3007
:10680000FDF790FD9DF8043064F3030364F3071370
:106810008DF804309DF805304FF0010A6AF3030348
:106820006AF307138DF805309DF806306AF34203CA
:1068300064F3C30364F30413DBB243EA0A0321469F
:10684000142208A88DF806300DF10C08FDF76AFD3A
:106850004FF0140905F1080308AA0DA9A8880A94A5
:106860000C94CDE90886ADF82C90FFF76AFF04463A
:10687000002840F0A38001461C220DA8FDF752FD20
:106880009DF834300E9443F018038DF83430AB7912
:106890008DF80E30214641F2315303223046CDE9C6
:1068A0001044CDE91244ADF80C30FDF73BFD9DF8E6
:1068B000043064F3030364F307138DF804309DF888
:1068C00005306AF303036AF307138DF805309DF86A
:1068D00006306AF3420364F3C303DBB243F01103EF
:1068E00021464A4608A88DF80630FDF71BFD172300
:1068F000ADF82C3008AA05F110030DA9A8880A9458
:106900000C94CDE90886FFF71CFF0446002855D1FA
:1069100001461C220DA8FDF705FD9DF834300E94AC
:1069200043F002038DF83430AB798DF80E302146F8
:1069300041F2345303223046CDE91044CDE91244EC
:10694000ADF80C30FDF7EEFC9DF804306AF303035C
:106950006AF307138DF804309DF8053064F30303E0
:1069600064F307138DF805309DF806306AF342038F
:1069700064F3C30364F30413DBB243EA0A0321465E
:106980004A4608A88DF80630FDF7CCFC02230A938E
:10699000ADF82C3008AA05F120030DA9A8880C97A2
:1069A000CDE90886FFF7CDFE044638B97B68AB62B7
:1069B000BB6803B1EB62054B01221A70204614B08C
:1069C000BDE8F0870E24F9E788AD0F00BC960020E3
:1069D00070B5054686B070B302884FF6FF739A42D1
:1069E0002BD0174B1B7843B3164C1022080AE170CA
:1069F000207121FA02F0090E072301266071A171AE
:106A000002A800216370ADF806302270A670FDF771
:106A100089FC2B8AADF808300023ADF80C3002A9B0
:106A20000DF1060328888DF80A60CDE90434FFF7DC
:106A30008CFE06B070BD0E20FBE70820F9E700BF12
:106A4000BC960020BD96002030B5054687B060B3E7
:106A500002884FF6FF739A4229D0164B1B7833B346
:106A6000154C112323700B0A6170A3700B0C090ED7
:106A7000E370217105230021102202A8ADF8063031
:106A8000FDF750FC2B8AADF8083001238DF80A3051
:106A90000023ADF80C3002A90DF106032888CDE9DA
:106AA0000434FFF752FE07B030BD0E20FBE708208C
:106AB000F9E700BFBC960020BD96002030B5044623
:106AC00087B038B300884FF6FF73984224D0134B39
:106AD0001B780BB3124D102369700321ADF806101B
:106AE000AA7000211A4602A82B70FDF71BFC238A0E
:106AF000ADF8083001238DF80A300023ADF80C30D2
:106B000002A90DF106032088CDE90435FFF71DFE2B
:106B100007B030BD0E20FBE70820F9E7BC96002047
:106B2000BD96002070B50D4688B0044640B139B11D
:106B3000826A2AB10B88112B59D003D8102B43D06D
:106B400008B070BD502B42D0512BF9D18B79022B5C
:106B5000F6D10A89038A9A42F2D18B7B043B022B3D
:106B6000EED99DF8163043F001038DF816300B8AEC
:106B7000ADF818304B8AADF81A30022601F1140333
:106B80000822002101A807938DF81060FDF7CAFBC9
:106B900001AAA18A20880196CDF808D0FFF7D3FD7D
:106BA000034638B3E36A03B1984740F2FD1304A9E2
:106BB0002088ADF81430FFF7CAFD0028C0D0E36A82
:106BC000002BBDD09847BBE78B882380B8E7C988E6
:106BD00003899942B4D108238DF81030123535F865
:106BE000023C8DF81830059504A99047A8E74FF6A8
:106BF000FF73EAE79DF800202088D207D5D504A9C5
:106C0000ADF81430FFF7A3FD0028D8D1297D4B1E25
:106C1000072B41D8DFE803F0041A2327292B3E2D48
:106C200000238DF804306B8A012B05D80622012140
:106C30002046FFF743FFC0E7012315358DF80C30E0
:106C40000295A36A01A92046984779E76A8A012339
:106C50009A428DF80430F0D806220221E8E7022398
:106C60008DF80430EDE70323FAE70423F8E7052362
:106C7000F6E76B8A022B02D803220821D8E7AA7D07
:106C80006B7D43EA0223ADF808300BB90723E7E731
:106C90000623E5E70923E3E70322C9E7A8DF7047F6
:106CA000AADF70472DE9F04381468FB0154698461C
:106CB0000E4611B9084600F0E5FC15B9284600F06B
:106CC000E1FC1C220DEB02000021FDF72BFB9DF8DF
:106CD0001C30ADF80490002443F002030127214644
:106CE000032268468DF81C300894CDE90A44CDE9AA
:106CF0000C448DF80670FDF715FB98F800308DF800
:106D0000003098F801308DF801309DF8023067F3BB
:106D1000420303F0E70364F300032146142202A8B0
:106D20008DF80230FDF7FEFA0A48CDF80CD001AB21
:106D3000029302AA169B0088ADF8105007A9ADF87F
:106D40001240ADF814500696FFF7AAFF0FB0BDE849
:106D5000F08300BFFC96002030B587B006A941F64D
:106D60000A03044621F80C3D01205A4A8DF80E0012
:106D7000FFF794FF0546002849D12288002A49D10F
:106D8000228952B1544B0093E16804F13C0342F66E
:106D90002420FFF787FF002847D1228A52B14F4BAA
:106DA0000093616904F13C0342F62520FFF77AFF66
:106DB00000283AD1228B52B1494B0093E16904F18A
:106DC0003C0342F62720FFF76DFF00282DD1228CCF
:106DD0004AB1444B0093616A04F13C0342F6262019
:106DE000FFF760FF08BB228D4AB13F4B0093E16A79
:106DF00004F13C0342F62820FFF754FFA8B9236BA7
:106E0000ABB9616B002938D1A36B002B42D1284666
:106E100007B030BD354B0093616804F13C0342F686
:106E20002920FFF73FFF0028AAD00546EFE71A68A0
:106E30008DF810201A68120A8DF811205A888DF8E2
:106E40001220DA788DF813205A688DF814209B6888
:106E50008DF815301A0A1B0C8DF81730244B8DF85D
:106E600016200093082204F13C0304A942F62320D3
:106E7000FFF718FF0028C4D0D7E71E4B0A7900930C
:106E8000096804F13C0342F62A20FFF70BFF0028B3
:106E9000BAD0CAE71A788DF810205A888DF81120D8
:106EA000120A8DF812209A888DF81320120A8DF894
:106EB0001420DB888DF815301B0A8DF816300E4B28
:106EC0000093072204F13C0304A942F65020FFF787
:106ED000E9FEAAE7FC960020DC960020F49600204C
:106EE000CC960020C4960020FE960020D496002068
:106EF00006970020EC960020E4960020094A53787B
:106F000091780133DBB2994208BF0023117899428E
:106F10001FBF03705078182303FB002014BF0430F8
:106F20000020704710970020082910B5044602D0B1
:106F3000002000F0A7FBD4E90030BDE8104018475E
:106F400073B5054602A8002400F8014D0E4600F076
:106F5000A7FB0DF10600FFF7D1FF90B106700A4BB9
:106F60009DF8062045605A709DF8070000F0BCFBB4
:106F700024B9064B4FF48012C3F80021204602B01A
:106F800070BD0424F0E700BF1097002000E100E08E
:106F9000204B21491A682F2300BF00BF00BF00BF4C
:106FA00000BF00BF00BF00BF8A422FD000BF00BF9C
:106FB00000BF00BF00BF00BF00BF00BF00BF00BFD9
:106FC00000BF00BF00BF00BF00BF00BF00BF00BFC9
:106FD00000BF00BF00BF00BF00BF00BF00BF00BFB9
:106FE00000BF00BF00BF00BF00BF00BF00BF00BFA9
:106FF00000BF00BF00BF00BF00BF00BF00BF00BF99
:1070000000BF00BF00BF00BF00BF00BF013BC3D136
:10701000704700BF308100200024F4000C4B0D4865
:107020004FF4003210B5C3F8802001244FF48033B0
:10703000C0F84833C0F808334460FFF7A9FF064B97
:10704000846000201860FFF7A3FF044B187010BD88
:1070500000E100E0001001402C9800201D98002065
:107060002DE9F3412549264B0025C1F84051C1F8CF
:107070004451C1F84851C1F84C51C1F80051C1F810
:1070800004511B68002B34D0D1F804451D49DFF8AA
:1070900088800968641A24F07F442F461A68A24247
:1070A00012D8A41A15441A7CDE6962B15A691F7499
:1070B00000929B69019342460821684600F04AFA13
:1070C00008B100F0DFFABEB90F4B104A19781378F7
:1070D0008B4205D10133DBB2022B08BF00231370B2
:1070E00012780B4B43F822500A4B4FF48012C3F82E
:1070F000002102B0BDE8F0813346CFE70010014027
:10710000309800202C9800202898002029980020F2
:107110002098002000E100E0296F0F002DE9F74FD3
:10712000A44AA54913780978A44C99423BD001336D
:10713000DBB2022B08BF00231370A1491278A14BC8
:107140000F6853F822003B1823F07F4300220B60A6
:10715000236815461646944613B942B1236006E0EB
:10716000196881420DD902B12360091A19600127FB
:107170002368DFF8589201930026BDB9DFF858A2C2
:1071800063E0401A0E44D968C3F800C0D3F81CE08D
:1071900031B1BA1922F07F42C3E90121DD611D46F8
:1071A00001227346D8E700252F46E1E72846ED691E
:1071B000834A43681268DFF824E2D0F808C0991ABD
:1071C00021F07F41714500F2A980614401600122F4
:1071D000027422680023C0E90133C361002A40F031
:1071E000A7802060C9E75A1C9AF80210D4F800B0B2
:1071F000D2B291428AF8002004BF00228AF800200F
:10720000182202FB03A31A799868022A73D0032A72
:1072100000F08180012A18D1017CB1B9DA6842609E
:107220001A6982605A69C2609B698361664B1B78E8
:10723000002BBDD04160BBE7984200F09E8098468D
:10724000DB69002BF8D1002303749AF800309AF818
:1072500001209A42C7D1236826B9019A934201D1ED
:10726000002F42D0002B00F08580D3F80090574CBF
:10727000534BD4F804651868554F351A3B7825F000
:107280007F4503359BB94FF48033C4F84433C4F8C9
:107290000433504B4FF400324FF00108C3F8802103
:1072A0001A60C4F80080FFF773FE87F80080A945D4
:1072B0002CBF4844401920F07F40C4F84005D4F862
:1072C00004359B1B23F07F43801B033320F07F405A
:1072D00083420AD9D4F80435C4F84035FFF758FE84
:1072E0003C4B4FF40032C3F80021374B00221A7098
:1072F00003B0BDE8F08F5B46D846A2E78BF81020BC
:10730000DBF81CB00123BBF1000FF7D1002B9CD0A0
:10731000C4F800B099E700231A46F4E7D31A23F023
:107320007F43634534BFACEB0303002303604EE7A8
:107330000168136899421BD8591A1160C26150E75D
:10734000A1EB0C01D3F81CC01A46BCF1000F0AD007
:107350006346D3F800C08C45F2D3ACEB010CC3F804
:1073600000C09C4613460160C0F81CC0D86104E709
:107370001346EEE7FFF752FEB7E740450CD1DBF8C6
:107380001C30236043B90E490122C9F808200B6064
:107390000D4B1A70FFF7FCFDC2690368C8F81C208A
:1073A00012B111680B44136023689B4518BF012676
:1073B00049E700BF28980020299800203098002035
:1073C0002C980020209800201C98002000100140DC
:1073D0001D98002000E100E010970020FEFF7F00D4
:1073E00008B5FFF71BFE104B00200B2218809A7087
:1073F0000E4B18600E4B18700E4B18700E4B4FF45E
:107400008012E021C3F8802183F814131A6002F17E
:107410008042A2F56F22C2F8080583F81113074BCA
:10742000D2F804251A6008BD10970020309800207B
:10743000289800202998002000E100E02C980020E6
:10744000074B9B784BB132B128B10368187C20B947
:1074500059745A617047072070470820704700BF71
:10746000109700202DE9F7431D4FBB7805460E46C7
:1074700090469BB390B304292ED9436973B3437CE0
:1074800002A80024012B00F8014D0CBF8946A1463B
:1074900000F006F90DF10600FFF730FDD0B1012331
:1074A0000370104B4560D3F80435C0E90498C0E977
:1074B00002369DF806307B709DF8070000F014F945
:1074C00024B9094B4FF48012C3F80021204603B0C1
:1074D000BDE8F0830424EFE70724F7E70824F5E785
:1074E000109700200010014000E100E0064A927869
:1074F0003AB130B1426922B1002202740221FFF791
:107500001FBD0820704700BF1097002012F0030332
:1075100010B511D1094C22604C1CE400A4B22244E5
:10752000074C2260074A1370074A1370074A1080FD
:10753000074A1846118010BD0720FCE73C98002040
:10754000389800203498002044980020409800206B
:10755000429800202DE9F3472B4D2B888B4206469D
:107560000C4617464BD302A84FF0000800F8018DD7
:1075700000F096F8254B264A18781178CBB22549A9
:1075800009888B4238BF0133C0B238BF5FFA83F835
:1075900040452ED092F800801378DBB2994286BF26
:1075A0000133DBB2002313709DF8070000F09CF854
:1075B0004FF6FF73984524D0DFF860A0DAF800306A
:1075C0004FEAC80903EB090243F83870A6B19CB131
:1075D000114B28881B68224608FB0030314602F018
:1075E000FCFEDAF800304B4400209C8002B0BDE87D
:1075F000F0874FF6FF78D7E700209080F6E7092064
:10760000F4E70420F2E700BF4098002044980020EF
:107610003498002042980020389800203C980020A0
:10762000F8B5124C124D264622782B789A4200D19A
:10763000F8BD23780F48104A078812680F48DBB25C
:1076400019B202EBC10C006852F83120BCF80410EA
:1076500003FB070090470A4A23781288DBB29A425C
:1076600086BF0133DBB200233370DDE7449800208E
:1076700034980020409800203C9800203898002042
:10768000429800201FB50021CDE9021001AA44F262
:107690000100ADF80410FCF771FE05B05DF804FBC5
:1076A00070B5EFF3108672B60C4A946801239CB94A
:1076B00093600B4B0B4DD3F8801029401160C3F839
:1076C0008050D3F8841051604FF0FF32C3F884200B
:1076D000047006B962B670BD0370FAE7E8C6002010
:1076E00000E100E0FC06FFBD10B5084B9A685AB1F6
:1076F00050B9EFF3108172B6054A1C6814605C68DB
:107700005460986001B962B610BD00BFE8C60020A1
:1077100000E100E02AB113880144884204D11846F0
:1077200070474FF6FF73F7E75BBA10F8012B9BB277
:107730005A40C2F30313534083EA03331BB25A0186
:1077400002F4FF5253409BB2E7E70000064B074AA2
:1077500000201870064B1A600822C3E90120C3E913
:107760000300C3E9050070474598002048980020B1
:1077700028AB00200020704730B5F9B1124B5C688F
:1077800000220A60E4B1B0F5167F1BD8D8681D68E6
:107790000130013CD86018695C604FF4177404FB39
:1077A00000540C60012101FA00F49969013000F0E5
:1077B0000700214318619961104630BD0E20FCE797
:1077C0000420FAE70C20F8E728AB0020F0B51D4BA9
:1077D0009A68A2B359691E688D1A05F007052C46F0
:1077E0004FF4177707FB046C604512D1012101FAB1
:1077F00004F0996941409961002021465E68D3F800
:1078000018C04FF0010E71440024164401F0070126
:107810000AE0013404F00704A142E3D11020EDE7AF
:107820004AB1013A0D4601240EFA05F515EA0C0F8E
:10783000A6EB0207F4D00CB1C3E90172F0BD04203D
:10784000FCE700BF28AB0020064A13691268013B21
:107850004FF4177103F0070301FB0323C3F8580229
:107860000020704728AB002030B5C0B1B9B10E4B35
:10787000DA68B2B1013ADA609A681D6801329A603A
:107880005A694FF4177404FB025404600132D4F8AF
:107890005802086002F007025A61002030BD0E2035
:1078A000FCE70420FAE700BF28AB00203FB40C49F6
:1078B000086890B10B4B1C687CB10B4A1568CDE988
:1078C000025000238DF804300B60136004AB13E901
:1078D0000700234604B030BC184704B030BC7047E2
:1078E0004CAB002050AB00205CAB0020DC2810B576
:1078F00009D0DD2810D0C02816D1FFF7D7FF0E4BD6
:107900000E4A1A6010BD0E4A0E4B19681368581CB7
:107910001060C022CA54F2E7094A0A4B196813687A
:10792000581C1060DB22F5E7064B054A19681368FE
:107930005C1C1460C854E2E7748000208D790F004D
:107940004CAB00205CAB0020C02802BF014B024AB8
:107950001A607047748000208D790F00014608B5C9
:10796000002001F091FE00280CBF0420002008BD7B
:1079700008B5DB20FFF7F2FF10B9024B024A1A608C
:1079800008BD00BF78800020157A0F00C02810B411
:1079900009D0DB280BD0094B094A196813685C1C15
:1079A0001460C85406E05DF8044BFFF77FBF054B39
:1079B000054A1A605DF8044B704700BF5CAB0020BD
:1079C0004CAB002074800020ED780F0010B5064A03
:1079D000064C12682368D05CFFF7C0FF10B923681B
:1079E0000133236010BD00BF60AB002054AB00200A
:1079F00008B5C020FFF7B2FF28B9034B1B6813B9C5
:107A0000024B034A1A6008BD54AB00207880002066
:107A1000CD790F0010B50C4A0C4C12682368D35C6A
:107A2000C02B03D0DB2B0CD0042009E0DC20FFF7B7
:107A300095FF28B92368064A01332360054B1A6075
:107A400010BDDD20F3E700BF60AB002054AB002089
:107A5000CD790F00788000207FB5134C134D144E64
:107A6000002001F0F1FDE8B1226852B129683368C5
:107A7000994206D2002001F0F1FD0E4B1B68984799
:107A8000EEE70D4B1B686BB10292084A02211268A7
:107A900003928DF8041004AA12E9070004B0BDE8AF
:107AA0007040184704B070BD5CAB00204CAB0020A8
:107AB00048AB00207480002050AB0020014B1860C0
:107AC0000020704750AB0020034B1A780AB90122FE
:107AD0001A700020704700BF44AB0020014B00200B
:107AE0001870704744AB00202DE9F04F85B0002896
:107AF0004FD0294F3B78012B07D0022B0CBF042518
:107B00000825284605B0BDE8F08F244C244A254EB0
:107B1000254DDFF8A0A0DFF8A0B01160002323609E
:107B200002233B70214B30602B60914698462268BF
:107B3000D9F800309A4215D3C5F80080FFF758FFF6
:107B4000054608BB1A4B1B6801223A70E3B18DF859
:107B50000420326802922268039204AA12E9070004
:107B60009847CEE7336822689A5CC02A03D022681F
:107B70009B5CDB2B04D12B68534508BFC5F800B0D4
:107B80002B689847042801D10025BAE71128CED1E7
:107B9000FAE71025B5E700BF44AB002054AB002046
:107BA00058AB002060AB002078800020F1790F00F6
:107BB00050AB0020CD790F0071790F00054B064ABC
:107BC0001860064B1960064B00201860054B1A60C0
:107BD000704700BF5CAB002049790F0048AB002024
:107BE0004CAB002074800020064B07481B68DB006C
:107BF000DBB20022037004215B4242708270C370CA
:107C0000FFF772BF8CAB002064AB002070B52D4C29
:107C10002D4E024625462378012B14D002D3022B89
:107C200020D070BD002AFCD12848FFF75FFC08B1C6
:107C3000FFF728FD264B1B68002BF2D0254ABDE834
:107C4000704010781847012AEBD13168224B063179
:107C50001868FFF749FF08B1FFF714FD02232B70E6
:107C60000022D8E7022A19D0032A0ED0002AD8D140
:107C70001A4B16481A6041F67F21FFF7F3FB0028E4
:107C8000CFD0BDE87040FFF7FDBC154A1368013343
:107C900003F00703136000232370E1E70F4A136822
:107CA000052B0AD001331360074B19680A4B0631C4
:107CB0001868BDE87040FFF717BF064B01221A7025
:107CC000E9E700BFB0AB0020A4AB002068AB002008
:107CD000A0AB0020A8AB0020B8AB0020ACAB0020CC
:107CE00090AB0020F0B585B004AB03E907009DF828
:107CF0000400032878D8DFE800F00802A7AA0120D2
:107D000005B0BDE8F040FFF781BF039E564C032E3F
:107D100040F28680029D6B7813F00F0269D00E2A24
:107D20007ED1042E59D02A78500656D5110654D546
:107D30001A44AB781A44EB781A4412F0FF024CD183
:107D4000B71E39462846FFF7E5FCEB195A78EB5D7C
:107D500043EA0223984240D144492A780B6802F052
:107D60000702D8B282422BD1013303F007030B6024
:107D7000FFF73AFF3E4B012230461A70FFF764FDD1
:107D800008B1FFF77FFC38494FF41670FFF7F4FC99
:107D900000285ED0042802D00020FFF773FC35488D
:107DA0000521FFF70BFF08B1FFF76CFC324B1B6896
:107DB000002B56D04FF0000005B0BDE8F04018474A
:107DC0004FF416712068FFF7F9FE08B1FFF75AFC6F
:107DD00005B0BDE8F040FFF707BF20684FF416710B
:107DE000FFF7ECFE00283CD005B0BDE8F040FFF7FF
:107DF00049BC2978AA780B441344EA78134413F059
:107E0000FF030DD11D4A12680132C1F3C20102F015
:107E10000702914204D11A4A03201370FFF7F6FEBD
:107E200025681DB14FF416712846D9E70E494FF465
:107E30001670FFF7A1FC80B1042802D02846FFF796
:107E400021FC0C480521CBE705210A48C8E703209F
:107E5000CAE720684FF41671A3E720684FF4167143
:107E6000BEE705B0F0BD00BFB4AB00208CAB002076
:107E700088AB002094AB00209CAB002090AB00208E
:107E8000A8AB00200220FFF7C1BE0000074B10B5D1
:107E9000044618600648FFF711FE08B1FFF7F2FB31
:107EA000002C0CBF0E20002010BD00BF9CAB00209A
:107EB000E57C0F00184A1948002310B51360184AD2
:107EC0001360184A1360184A1370184A1370184B3D
:107ED000184A01211960184B1960184B1970FFF7E7
:107EE000AFFA08B1032010BDFFF730FC0028FAD12B
:107EF000FFF7EAFD0028F6D1114C4FF41670214629
:107F0000FFF73AFC0028EDD120684FF41671BDE868
:107F10001040FFF753BE00BFB8AB002098AD0F0074
:107F2000A4AB0020ACAB002088AB0020B0AB00209D
:107F30008CAB0020857E0F0090AB0020A8AB00200A
:107F4000B4AB00200C4A08B5002313600B4A136041
:107F5000FFF710FC08B1FFF795FBFFF7BFFD08B175
:107F6000FFF790FB0648FFF7C1FA042802D1002072
:107F7000FFF788FB002008BDA0AB00209CAB0020D1
:107F800068AB002037B50D46044698B191B10A4B55
:107F900019780022019259B101A91A70FFF764FC07
:107FA000019B063B2B8023680433236003B030BD64
:107FB0000420FBE70E20F9E788AB00200438FFF728
:107FC00005BC4DDF70474EDF70474FDF704750DF15
:107FD000704743DF704712DF7047000010B52F4B2A
:107FE00088B04022044608A883F82723002300F81D
:107FF000193DFFF7F0FF9DF80730002B3BD0012023
:10800000FFF7E1FF0120FFF7DCFF0120FFF7DDFFB5
:1080100002A8FFF7DCFF029BDA0702D5002000F080
:1080200063FE029B9B0702D5022000F05DFE5CB15F
:108030001B4B52229A720022DA721A4B1A79013AB9
:108040001A715A88173A5A804FF0805316495A6E5F
:108050001B6E03A802F0E6F9144A012303A9194490
:1080600011F8011C22F813100133112BF6D101F085
:10807000F3FF08B010BD08A800F81C3DFCF760FE37
:108080000B4B039303A8FCF783FEFCF78BFE4FF02A
:108090008043D3F838340293BDE700BF00E100E02D
:1080A000FA800020988000204CAE0F000C81002048
:1080B000E98C0F0008B5134AD2F800350BB3002342
:1080C000C2F80435BFF36F8FBFF34F8F0E49802086
:1080D000C1F88400D2F80013C2F80813C2F80035C2
:1080E000BFF36F8FBFF34F8FFFF773FF1846FFF794
:1080F0006AFF1846FFF765FF1846BDE80840FFF71E
:1081000064BF08BD0070024000E100E00120FCF700
:108110009BBC0220FCF798BC38B50D4604460021F4
:1081200010461A46FCF7FEF82A781E2A04D80123C6
:108130009340074A134208D10023202205212046FC
:1081400001F0B2FC4FF0FF3038BD0020FCE700BF6B
:1081500001000048F8B5069E14460D46324600213F
:1081600018461F46FCF7DEF86CB10A4B1B68DB07AC
:1081700000D500BE4FF0FF300AE0284600F088F836
:10818000013504F50074B44207EB0401F5D3204631
:10819000F8BD00BFF0ED00E02DE9F041069E0C4F68
:1081A0000D4698460024B44208EB04010ED23B462B
:1081B0000022284600F03AF9002803DC06D03046B9
:1081C000BDE8F081013504F50074ECE72046F7E7DF
:1081D000BCAB002030B5104D2B6889B0CBB16A68BC
:1081E000934216D8062003ACFCF72EFC1422002183
:1081F0002046FCF797F800238DF80C30ADF80E30D0
:108200002B681B020693079B009394E80F00FCF772
:10821000EDFE09B030BD00BFBCAB00204FF4FA53F7
:108220000B604FF4007313807047000013B5104CBF
:108230002368BBB943F208031868FCF7B9FEA0B184
:1082400001A8FDF747F8019B9B6813F0FF0F1CBFC7
:1082500023F0FF0303F580735A1E033288BF4FF4E7
:1082600007232360206802B010BD4FF48073F8E745
:10827000E0AC002030B500232025934200DB30BD68
:108280000C781CB1C45401310133F6E7C554FBE747
:108290002DE9F0410C4605464FF4007200212046BE
:1082A000FCF740F865B93E225A49204602F095F89D
:1082B000552384F8FE31AA2384F8FF31BDE8F0810C
:1082C000402D32D86B1E1F2B88BFA5F121030BB3A5
:1082D0001D026FF0010305F5807603FB0544032DB5
:1082E00005F1010712D9FFF7A1FFC0F316200330F3
:1082F000A8420BD3FFF79AFFC0F316200330A84221
:1083000014BFBBB24FF6FF7324F81530BE423D4692
:10831000E5D1D3E7F822227004F109012246FF20BB
:108320008A42D5D002F8010FFAE7442D39D8413DF1
:1083300007D120460B223849FFF79CFF2823E37220
:108340002034364B2E014FF0640803EB052500273F
:10835000022EB3DC0B2229462046FFF78BFF4F236A
:108360006FF02800532274216374E3746376B31CA6
:1083700084F80D80A073E1732274A2742775677569
:10838000A075E17522766383E86830B102F06AF87F
:10839000E061013620341035DAE7FFF747FF40008F
:1083A000F6E7A5F14502012A0DD81C4B03EB021399
:1083B000DD68284602F056F8294602462046BDE808
:1083C000F04102F00AB805F219263602B6F52D2F53
:1083D000BFF474AF124B236003F1144303F52C1365
:1083E00003F602336360473D0E4BC4F8FC31656110
:1083F000FFF71CFF4FF40053000A4FF48072A36094
:10840000094BA061E6602261E361314604F120007E
:10841000D5E700BF57AE0F0082AE0F0004AF0F00CC
:108420005546320A306FB10A4028A5AD38B51D4611
:108430000A68354B9A420C4662D103F114434A68EC
:1084400003F52C1303F602339A4259D1D1F8FC21DB
:108450002E4B9A4254D18B689A0451D5C9692C4A43
:1084600091424DD1DB071DD42369B3F5807F19D824
:10847000E26812F0FF0F15D1B2F5183F12D3134482
:10848000B3F52D2F0ED8234B1A7822B100220520E8
:108490001A70FCF7D9FA01232269E06804F120017F
:1084A000FCF77AFB15B94FF4007038BDA369002BB7
:1084B000F9D02A68934207D040F6D3018B4200D806
:1084C0000AB14FF0FF332B60636940F6D302934249
:1084D000E9D803F0070105EBD30301228A40197A9A
:1084E000D2B2114204D168680A4301301A7268603E
:1084F000D5E900329A42D6D30120FCF72FFBD2E710
:108500004FF0FF30D1E700BF5546320A306FB10A55
:108510004028A5AD2E810020BFF34F8F0549064BA3
:10852000CA6802F4E0621343CB60BFF34F8F00BF11
:10853000FDE700BF00ED00E00400FA05054B1B68F5
:10854000082B01BF044B1868B0FA80F0400918BF2F
:1085500000207047300100103401001008B54FF0C2
:1085600080430022C3F80C21C3F81021C3F838253A
:108570004FF0805203F54043D2F80414C3F820159D
:10858000D2F80814C3F82415D2F80C14C3F828152F
:10859000D2F81014C3F82C15D2F81414C3F83015FF
:1085A000D2F81814C3F83415D2F81C14C3F84015C7
:1085B000D2F82014C3F84415D2F82414C3F848158F
:1085C000D2F82814C3F84C15D2F82C14C3F850155F
:1085D000D2F83014C3F85415D2F83414C3F8601527
:1085E000D2F83814C3F86415D2F83C14C3F86815EF
:1085F000D2F84014C3F86C15D2F84424C3F870259F
:10860000FFF79CFF10B1444B444A1A60FFF796FFF6
:1086100018B1434BFB22C3F81825FFF78FFF48B171
:108620004049414B0A681B6822F00F0203F00F0318
:1086300013430B60FFF782FF18B13C4B4FF40072FD
:108640001A604FF08043D3F80024D10744BF6FF085
:108650000102C3F80024364AD2F8883043F470038C
:10866000C2F88830BFF34F8FBFF36F8F4FF01023E6
:10867000D3F80C22D2071ED52E4B0122C3F80425B5
:10868000D3F80024002AFBD04FF01022D2F80C328D
:1086900023F00103C2F80C32264B1A46D3F800141B
:1086A0000029FBD00021C3F80415D2F80034002BB8
:1086B000FBD0FFF731FFD3F80022002A03DBD3F809
:1086C0000432002B23DA1B4B0122C3F80425D3F814
:1086D0000024002AFBD04FF010221221C2F8001211
:1086E000D3F80024002AFBD04FF010231222C3F845
:1086F0000422104B1A46D3F800140029FBD00021A5
:10870000C3F80415D2F80034002BFBD0D1E70A4B94
:108710000A4A1A6008BD00BF8C5600404881030019
:1087200000F00040E40E0040580200104096024065
:1087300000ED00E000E00140308100200090D00317
:10874000064B93F8C0202AB9054B1B68DB0704D5FC
:1087500000BE7047002283F8C0207047E4AC0020C0
:10876000F0ED00E00D4B93F8C020014662B10C4AD9
:108770005268C2F308021AB101220A4800F0B0BEE2
:1087800093F8C020002AFBD1012283F8C0200A60A0
:10879000BFF36F8FBFF34F8F704700BFE4AC002073
:1087A00000ED00E065870F00F8B50F490F4E00F5AA
:1087B0009473182551F823404543142303FB0013F9
:1087C0007259C3F80027E4B2C3F80447084B03EB1F
:1087D0008000FFF7C7FF7359771923447351FB8853
:1087E0001C44A4B2FC80F8BD00700240E4AC002040
:1087F0002870024010B4104B182101FB00314A8A46
:108800000B8ACC689B1A0A7D9BB2934228BF134601
:108810001422424302F1804202F51C32C2F80046A3
:10882000C2F804362344CB60044B5DF8044B03EBE1
:108830008000FFF797BF00BFE4AC00200470024047
:1088400001207047014B80225A60704700E100E030
:10885000024B8022C3F88420704700BF00E100E093
:108860007047704710B58878097900F07F031824A5
:108870000C22C0095C4302FB0044114A22441172DD
:10888000012202FA03F40F4978B90C3302FA03F318
:10889000C1F80433D1F814352343C1F81435BFF3BC
:1088A0006F8FBFF34F8F012010BD023302FA03F325
:1088B000C1F80433D1F810352343C1F81035EEE781
:1088C000E4AC002000700240F7B51D4601F07F00C7
:1088D0001823CE091B4C0F4603FB00F10C2303FBAE
:1088E0000613E118E25000238D80CB8078B975B96A
:1088F0001548FFF737FFFFF723FF00952B462A4661
:108900003946284600F0A2FD012003B0F0BDAEB903
:10891000182303FB0044637A13B1FFF745FFF3E725
:108920000A4B30B90122DA64BFF36F8FBFF34F8F68
:10893000EAE700F5947043F82060F5E7FFF75AFF87
:10894000E2E700BFE4AC002050700240007002403B
:1089500091B1CA0901F07F03084A0BBF03F5887380
:1089600003F5847302EB830352F8230008BF5868B1
:10897000003018BF01207047084670470070024061
:1089800011F07F0F064B0BBF012241F480715A6535
:10899000C3F81815BFF36F8FBFF34F8F704700BF39
:1089A000007002404B0606D0034BC3F81815BFF306
:1089B0006F8FBFF34F8F70470070024011F07F0040
:1089C0000DD01823C90958430C2303FB01000449A7
:1089D0000844C3888088984294BF002001207047D3
:1089E000E4AC002010B500221146930003F180434F
:1089F00003F51C330132082A59609962F5D1064B00
:108A0000064C5962C422996420460021FBF78AFC77
:108A100040232375237210BD00700240E4AC002097
:108A20002DE9F04F884B894ED3F80003002385B021
:108A30001C4601251F4605FA03F101420CD09A1984
:108A40009200D2F800C0BCF1000F05D00C431760B3
:108A5000BFF36F8FBFF34F8F0133192BEBD1E507B6
:108A600006D5FFF7BFFF01221146002000F0C2FC2F
:108A7000774B23400BB1FFF763FE20022BD5724BDF
:108A8000D3F88014C9B28DF80810D3F88424D2B278
:108A90008DF80920D3F888048DF80A00D3F88C04E7
:108AA0008DF80B00D3F890048DF80C00D3F89404E3
:108AB0008DF80D00D3F898048DF80E00D3F89C348F
:108AC0008DF80F30490601D1052A04D0012202A9F0
:108AD000002000F0A2FC5C4E5E4F0C254FF0010C14
:108AE0000CFA05F3A5F10C022342D1B224D01423D1
:108AF00003FB02634FF0000ED3F80807182303FBB3
:108B0000027803FB0573A3F58C7988F809E099F8DE
:108B10000090C0B28145A3F58E7378D1B8F80600F5
:108B2000B3F80080804572D900296BD1C6F84CC0DB
:108B3000BFF36F8FBFF34F8F0135142DCED1464B4E
:108B40002340002B54D0404BD3F86C74C3F86C74A2
:108B5000BFF36F8FBFF34F8F14F4806607D0D3F845
:108B60008064D3F880341A06C6F3C0165CD54FF083
:108B70000008DFF8D4A0DFF8DCB000254FF00109D1
:108B800009FA05F33B42E8B201D195B98EB114233D
:108B9000182202FB05B203FB05A3D3F80436518A61
:108BA0000B449BB25382538A118A99423FD9FFF7F3
:108BB00021FE0135082DE3D1DFF89890002501262C
:108BC0004FF0180A05F1100306FA03F33B42E8B22E
:108BD00003D155B9B8F1000F07D00AFB0593DA8825
:108BE000998891422DD9FFF7DFFD0135082DE9D194
:108BF000A30204D501220321002000F0FBFB05B0F5
:108C0000BDE8F08F05F58E7346F823E090E7182055
:108C100000FB0272D08818800123D28800930023C1
:108C2000184600F013FC87E74FF00108A1E7002386
:108C3000528ACDF8009040F08001184600F006FC02
:108C4000B7E75E72D1E700BF00700240409C0010A1
:108C5000FCFB1F00E4AC002000040001084B1B6873
:108C6000082B08D1074B1868431E012B05D9C31EDA
:108C7000584258417047002070470120704700BF9C
:108C8000300100103401001042DF704743DF7047AD
:108C900044DF704712DF704707B502A8002300F8D1
:108CA000013DFFF7F7FF9DF80700003018BF0120D6
:108CB00003B05DF804FB07B5FFF7EEFF48B101A86C
:108CC000FFF7E6FF0198003018BF012003B05DF800
:108CD00004FB4FF08043D3F80C0400F00110A0F126
:108CE000011358425841F1E7012813B5024600F03C
:108CF0009E8053D3022840F09380624BD3F8002427
:108D00001205FBD54FF40062C3F80024BFF36F8F48
:108D1000BFF34F8F5C4B00211960BFF36F8FBFF320
:108D20004F8F5A4A106803F58E2303F2144300282C
:108D300078D149F27531116018601160FFF78EFF2C
:108D400040B11068524B00286ED149F27531116064
:108D5000186011604C4B40F2E3721A6004334022F9
:108D60001A60BFF36F8FBFF34F8FA3F60403802207
:108D70004849C3F81C25C3F804134749C1F88421A6
:108D80004A601A46FFF797FF0028FBD00123C2F87C
:108D90000435BFF36F8FBFF34F8F41E0394BD3F8EA
:108DA0000025002A3CD14FF40062C3F80024BFF331
:108DB0006F8FBFF34F8FFFF751FF344B40B11868EF
:108DC000334A032100BB49F2753018601160186006
:108DD0001868324AC021C8B949F27530186011606C
:108DE0001860284B0122C3F80025BFF36F8FBFF333
:108DF0004F8FFFF760FF98B9FFF74EFF40B102B009
:108E0000BDE81040FFF740BF1160E1E71160E8E7FF
:108E1000234B18601B680193019B4FF080431A603D
:108E200002B010BD196089E700221A6092E7154B65
:108E3000D3F800150029F3D00021C3F80415BFF3BF
:108E40006F8FBFF34F8F14488024C0F88440D3F84D
:108E50000003C3F80803C3F80015BFF36F8FBFF317
:108E60004F8FFFF719FF48B1FFF710FF01220221D2
:108E7000002002B0BDE8104000F0BCBA094B1A60F7
:108E8000F4E700BF007002400078024000EC0640AA
:108E900014ED06400514C00100E100E014EC0640AA
:108EA0000001004004000040C3809DF800300372C0
:108EB00000234381016083818280C3810120704748
:108EC00010B50446084663899BB2ABB1E2882368BB
:108ED000E18902FB013101F080FAE389A1885A1C83
:108EE00092FBF1F301FB13239BB2E3816389013B06
:108EF0009BB26381012010BD1846FCE72DE9F041CB
:108F00004489A4B205468846164684B143899A42EC
:108F100088BF46894FF0000788BFB6B2BCB2A642F0
:108F200005D941462846FFF7CBFF013710B9204647
:108F3000BDE8F081EB889844F0E710B5438982885A
:108F40009A42044601D1007AD8B1E2882368A08908
:108F500002FB003001F041FAA389A1885A1C92FB60
:108F6000F1F301FB13239BB2A3816389994215BFDF
:108F70006389A38901339BB216BF9BB2E3816381EE
:108F8000012010BD2DE9F04107460E46144652B1AE
:108F9000904600254545ACB205D031463846FFF72E
:108FA000CCFF013510B92046BDE8F081FB881E4496
:108FB000F0E7002343818381C381012070470000D3
:108FC00038B50E4D0446212200212846FBF7AAF9A8
:108FD0001022FF21681CFBF7A5F91022FF2105F1E3
:108FE0001100FBF79FF9204600F0ACFA204600F094
:108FF000BBFB2046BDE8384000F06ABDA8AD0020AC
:1090000070B505460E4614462AB90378012B02D1E5
:109010001046FFF71DFC3146281DFFF78EFF064660
:109020002CB92B78012B02D12046FFF70BFC3046E0
:1090300070BD000010B50D4C201DFFF7BAFF0C4BA2
:109040001C6000F065FB00F03BFD0020FFF7F8FB23
:10905000044630B9074B1B68DB0700D500BE20462D
:1090600010BD0020FFF7EEFBF9E700BF34810020C0
:10907000CCAD0020F0ED00E02DE9F04F85B000F020
:10908000F9FF002800F04581DFF8D092AD4ECA46C6
:10909000D9F800402378012B02D10020FFF7D8FB3C
:1090A00001A9201DFFF70CFF2378012B054602D1F3
:1090B0000020FFF7C7FB002D00F02B819DF8053045
:1090C000013B072B00F2638101A252F823F000BF9D
:1090D0002F930F0061930F0091900F008F930F005B
:1090E0008F930F00F1900F00DF920F0081930F001C
:1090F00000209DF8044000F03BFA9DF8082012F093
:109100007F0540F0AB809DF80930053B042B00F251
:10911000C780DFE803F00379C59E0D0002A9204651
:1091200000F01BFA9DF80A102046FFF799FBAFE705
:109130009DF80A50844F29462046FFF792FB834B47
:109140003D701B685B685BB93268D50701D40023AA
:1091500000E000BE1A4602A9204600F00FFA97E789
:109160005A8803F1090503EB020B5D4505D3784BE3
:10917000002BECD0FEF7CAFFE9E76B780B2B02D18E
:109180002B781D44F1E7042B0ED16B79022B04D010
:10919000082B09D14FF0010801E04FF00008AB782F
:1091A0003B445A78FF2A04D03368D807CFD500BE95
:1091B000CDE704AA83F801804FF0000322F80E3DAA
:1091C000644B03EB481329469B68204698470028C8
:1091D000EAD0BDF802000828E6D92A4600235178D3
:1091E000052909D192F802C00CF07F0107EB41017B
:1091F00001EBDC1181F8118011780B449BB298428D
:109200000A44ECD80544B0E7BDF80A301A0A022A2D
:109210000CD0032A11D0012A03D14C4B1B681A68C9
:10922000D2B99DF8040000F095F931E7474B1B686F
:109230005A685388002BF4D08DE7474A9189DBB2F6
:109240009942EED9926852F82320002AE9D0137887
:10925000F0E701233C4A7EE712237CE702F01F027D
:10926000012A14D19DF80C20374B13445B78012B55
:10927000D7D8384D05EB4315286900F079F9EB682C
:1092800002A92046984700287FF402AFC9E7022DC3
:1092900006D19DF80930012B11D006D3032B18D02D
:1092A0003368D907BDD500BEBBE79DF80C1020463A
:1092B000FFF74EFB04AA2B4622F80E0D4BE79DF854
:1092C0000C102046FFF76EFB02A9204600F045F97E
:1092D000DEE69DF80C102046FFF752FBF4E79DF800
:1092E000081011F07F0207D1039B9DF809209DF81B
:1092F000040000F06DF9CBE6134B03EB420303EBE4
:10930000D1135A7C012A07D90E4B1B68DA0700D506
:1093100000BE05B0BDE8F08F0E4B9DF8040003EBD6
:1093200042139DF809205C69039BA047B0E69DF8B5
:109330000400FFF745FEDAF800000430FFF739FEBD
:10934000A6E600BFF0ED00E0A8AD002048810020B7
:109350000D810F0000B00F007C800020CCAD0020FC
:109360009DF80400FFF72CFEDAF800000430FFF748
:1093700020FE0A4B002B3FF48BAEFEF7CAFE87E6B9
:10938000029B002B3FF484AE0398984780E6336835
:10939000DB077FF57DAE00BE7AE600BF13810F00CC
:1093A00010B54378013B04460A46072B1DD8DFE879
:1093B00003F004041C1C1C040B040C4B0146BDE808
:1093C00010401868FFF71CBE0379590601D1836865
:1093D0005BB1064B21461868FFF712FE637923B193
:1093E000034B1B68DB0700D500BE10BDCCAD0020D1
:1093F000F0ED00E01FB500238DF804008DF8051096
:1094000001A81146CDF80630CDF80A30ADF80E307F
:10941000FFF7C6FF05B05DF804FB1FB50023144637
:109420000822CDF80630CDF80A30ADF80E308DF8B0
:10943000040006230DEB02008DF8053000F0CDFF8F
:10944000214601A8FFF7ACFF04B010BD1FB50024F2
:109450008DF804000720CDF806408DF805008DF842
:10946000081001A89DF81810ADF80A4003928DF875
:109470000930FFF795FF04B010BD00002DE9F84357
:10948000089D07460C469046994602266378052BB0
:1094900004D1E17801F00301414506D00F4B1B6870
:1094A000DA0700D500BE002009E021463846FFF764
:1094B000D9F930B9094B1B68DB07F4D500BEBDE80C
:1094C000F883A178CB0914BF297089F8001023789C
:1094D000012E1C44F3D00126D8E700BFF0ED00E0D8
:1094E0001FB500230193CDE902010823114601A80D
:1094F0008DF80530FFF754FF05B05DF804FB000060
:1095000070B50E49CB898C89E41AA4B291F9003068
:10951000402C28BF4024002B05460CDA89680848F7
:10952000224600F05AFF802123462846044ABDE81F
:109530007040FFF7C9B90021F6E700BFD0AD0020A9
:10954000B4C70020142200210148FAF7EBBE00BF87
:10955000D0AD00200021FFF713BA91F90030002BA5
:109560004FF000031A46ACBF80211946FFF7ACB993
:10957000014B1861704700BFD0AD0020F8B5124D07
:109580000C46074608684968AA602E4603C6E1886B
:10959000994228BF1946A9810021E98162B15BB1D6
:1095A0003846FFF7ADFF28B9084B1B68DB0708D426
:1095B000002000E00120F8BD21463846FFF7CDFF2E
:1095C000F1E700BEF7E700BFD0AD0020F0ED00E00E
:1095D00070B51A4C1E4694F90030002B054604DB8A
:1095E00032461749A06800F0F8FEA368E2893344C8
:1095F0003244A360A38992B29342E28101D03F2E0C
:1096000016D8236953B90D492846FFF7A6FF68B954
:109610000C4B1B68DB070FD4002070BD07492846A0
:1096200098470028EFD12846FFF794FF0120F4E780
:109630002846FFF765FFEAE700BEEEE7D0AD002061
:10964000B4C70020F0ED00E0034A4FF40B6303FBC6
:109650000020408B704700BFE4AD002007B5094AE9
:109660004FF40B6303FB00200DF107011030FFF7EF
:1096700027FC20B19DF8070003B05DF804FBFF2034
:10968000FAE700BFE4AD002013B502AC064A04F8C7
:10969000011D4FF40B6303FB002021460122203003
:1096A000FFF770FC02B010BDE4AD00202DE9F041E1
:1096B000154F4FF40B6444433E190020B178FFF777
:1096C0007DF9804610B10020BDE8F08104F5076502
:1096D0003D4404F12000402229463844FFF70EFCA7
:1096E000034608B90120EFE73279D207EBD52A46C5
:1096F000B1784046FFF7E8F80028F3D1034B1B6828
:10970000DB07E0D500BEDFE7E4AD0020F0ED00E0D0
:1097100073B5144C4FF40B6200212046FAF702FE99
:10972000FF2363714FF442430125E38008230026A1
:10973000237304F130012B4600954FF4806204F14D
:1097400010002581A672E672FFF7AEFB00962B464D
:109750004FF4806204F5866104F12000FFF7A4FB5A
:1097600002B070BDE4AD002010B5084C0522002108
:109770002046FAF7D7FD04F11000FFF71AFC04F1B8
:109780002000BDE81040FFF714BC00BFE4AD00208E
:10979000F7B58B79022B0746154607D02B4B1B6874
:1097A000DB0700D500BE002003B0F0BDCB79073B3E
:1097B000DBB2F72BF2D9264EB378002BEED18B78A3
:1097C00033700C7809230C44138005E023782A8831
:1097D00013442B8023781C446378242BF6D0052B6C
:1097E00012D121463846FFF73DF828B9174B1B68C0
:1097F000DA07D8D500BED7E7A378737023782A8814
:1098000013442B8023781C446378042B14D1637990
:109810000A2B11D123782A8813442B8021780D4BF1
:1098200000930222013321443846FFF727FE002827
:10983000DCD02B880E332B804023074AF178384642
:10984000FFF742F80028D1D0AEE700BFF0ED00E00E
:10985000E4AD0020E6AD002014B6002008B50B787A
:1098600003F06003202B0AD14B78202B05D1054B48
:109870001BB105490020AFF30080012000E000206B
:1098800008BD00BF00000000EAAD002010B50B7855
:1098900003F06003202B0C4607D0124B186810F021
:1098A000010001D000BE002010BD4B78202BFAD360
:1098B000212B11D9222BF6D10B4B4A881A71FFF7B5
:1098C0004CFE0A4B63B161880020C1F3400201F0F5
:1098D0000101AFF3008003E00723054AFFF74EFEC6
:1098E0000120E1E7F0ED00E0E4AD00200000000021
:1098F000EAAD00202DE9F8431C4CE2788A42074685
:1099000002D00120BDE8F883DFF8709003F503660C
:109910004FF4036504F11008B54215D1144B2BB177
:10992000638B9BB213B10020FEF796F84023114AD7
:10993000E1783846FEF7C8FF0028E2D10E4B1B68DD
:10994000DB07DFD500BEDDE761194046FFF7F5FA1A
:10995000B9F1000F08D06379FF2B05D0615D994202
:1099600002D10020AFF300800135D5E7E4AD00203F
:10997000597A0F0014B60020F0ED00E0000000005E
:1099800038B5174B174C0546A3B1607BAFF3008089
:1099900080B9A368A362012384F82C3042F20773D4
:1099A00084F83E00A38794F82F102846BDE838407D
:1099B000FEF7E6BFA26BA36894F82F109B1AB3F5CD
:1099C000805F28BF4FF480539BB2074A2846FEF7BA
:1099D0007BFF20B9054B1B68DB0700D500BE38BDF7
:1099E0000000000094C6002094B60020F0ED00E0D6
:1099F000F0B52A4C85B0022204F11601064603A8F0
:109A0000A56800F0EAFCBDF80C2052BA92B204F14D
:109A10001101B5FBF2F503A8042200F0DEFCA76BF0
:109A2000A3680399607BDB1BB3F5805F28BF4FF40D
:109A30008053AAB209BAB7FBF2F500932944184B38
:109A400002FB1572FEF786FB031E94F82E1011DA46
:109A5000A368A26B9B1AA362012384F82C3042F204
:109A60000503A3873046002384F83E30FEF788FFC5
:109A700005B0F0BD05D100931A463046FFF7E6FC6D
:109A8000F6E79BB2064A3046FEF71EFF0028EFD1EC
:109A9000044B1B68DB07EBD500BEE9E794C600204A
:109AA00094B60020F0ED00E0044880F83C1080F807
:109AB0003D2080F83E300120704700BF94C6002052
:109AC000402200210148FAF72DBC00BF94C60020B7
:109AD000402200210148FAF725BC00BF94C60020AF
