:020000040000FA
:10000000C0080000DD0700000D050000BD0700006E
:1000100017050000210500002B050000000000006E
:100020000000000000000000000000006108000067
:100030000000000000000000350500003F05000042
:1000400049050000530500005D050000670500003C
:10005000710500007B050000850500008F0500008C
:1000600099050000A3050000AD050000B7050000DC
:10007000C1050000CB050000D5050000DF0500002C
:10008000E9050000F3050000FD050000070600007B
:10009000110600001B060000250600002F060000C8
:1000A00039060000430600004D0600005706000018
:1000B000610600006B060000750600007F06000068
:1000C00089060000930600009D060000A7060000B8
:1000D000B1060000BB060000C5060000CF06000008
:1000E000D9060000E3060000ED060000F706000058
:1000F000010700000B070000150700001F070000A4
:100100002B070000370700001FB500F003F88DE84B
:100110000F001FBD00F058BB2DE9F04105460E460B
:100120001746002406E056F8241005EB840000F082
:10013000D9F9641CBC42F6D30020BDE8F081014629
:100140000868B0F5002F01D3102070470020FCE7AD
:100150002DE9F04105460C461646002706E02846E4
:10016000216800F0BFF92D1D241D7F1CB742F6D376
:10017000BDE8F08170B505460C462E460BE03046D2
:1001800000F09EF9B4F5806F01D2002401E0A4F5DF
:10019000806406F58056002CF1D170BD0146D1E98E
:1001A000000200EB8200B0F5002F09D84FF01020BC
:1001B000406904234A6803FB0200B0F5002F01D90F
:1001C000092070474FF010204069401C08B90F20EB
:1001D000F7E70020F5E72DE9F041044620680528FF
:1001E00047D2DFE800F0032A40475700201DFFF701
:1001F000D5FF054615B12846BDE8F08100F044F969
:1002000000BF4FF4805000F05BF900BF042221468C
:100210009148FFF781FF08B10320EDE7082221464E
:100220008D4800F09BFA30B900218C48006800F03E
:1002300059F900F002F90320DEE7A668E56867686F
:1002400029463046FFF796FF2A4639463046FFF7E3
:100250007FFFAA003946304600F080FA08B9002036
:10026000CAE70320C8E700F013FB4FF440507C4975
:10027000086041E06568E668A768B200394628462C
:1002800000F06CFA8046B8F1000F01D10020B3E70E
:100290000E20B1E7201DFFF752FF05460DB128469D
:1002A000AAE7606848B900F0EFF800BF4FF40050CB
:1002B00000F006F900BF00F0C0F800F0E5F800BF5C
:1002C0004FF4805000F0FCF800BF04222146624841
:1002D000FFF722FF08B103208EE7082221465E487F
:1002E00000F03CFA30B900215C48006800F0FAF8F0
:1002F00000F0A3F803207FE700BF00207CE770B583
:1003000005460C46182D04D12068FFF764FF2060D5
:1003100002E00120206000BF00BF70BD2DE9FF4159
:100320004FF0102044694C48806804EB8005260B90
:1003300005F6FF70070B00200090019002900390DB
:1003400000BF0BE041095DF8211000F01F030122FE
:100350009A40114342094DF82210401CB042F1D39B
:1003600038460BE041095DF8211000F01F0301221F
:100370009A40114342094DF82210401C8028F1D3C5
:10038000684600F073F8BDE8FF8170B54FF01020AB
:100390004469314885684668AA003146204600F025
:1003A000DDF908B1002070BD0120FCE72A48406853
:1003B00008B1012000E000200546FFF7E6FF48B144
:1003C00000F062F800BF4FF4005000F079F800BF71
:1003D00000F033F8FFF7A2FF7DB14FF0102046691F
:1003E0001D488468476821463046FFF7C3FE224611
:1003F00039463046FFF7ACFE00BF00F01EF810B5DE
:100400001548446816480460204600F015FA10BDEF
:10041000124800680068401C08B900BFFEE70E489B
:10042000006810B1042806D101E0FFF7BFFFFFF715
:10043000E6FF00BFFEE700BFFEE7BFF34F8F0948AE
:10044000006800F4E06008490843001D05490860A1
:10045000BFF34F8F00BFFEE700100000B40800009C
:10046000000000200CED00E00000FA050F4A0168D2
:100470001160121D416811600C4A103281681160D0
:10048000121DC168116070476FF0060007490860CF
:10049000C010064914310860091F08600349091D8E
:1004A000086070470249086070470000000600407D
:1004B00008E5014000BF134800680028FBD07047E2
:1004C00010B50446022010490860FFF7F3FF2046EC
:1004D000FFF7E8FFFFF7EEFF00200B490860FFF78A
:1004E000E9FF10BD00B502460120074B1860FFF779
:1004F000E1FF1160FFF7DEFF0020034B1860FFF7FC
:10050000D9FF00BD00E4014004E501400820904906
:1005100009680958084710208D4909680958084793
:1005200014208B4909680958084718208849096828
:1005300009580847382086490968095808473C2067
:1005400083490968095808474020814909680958C2
:10055000084744207E4909680958084748207C49D3
:100560000968095808474C2079490968095808471B
:100570005020774909680958084754207449096888
:1005800009580847582072490968095808475C20EB
:100590006F4909680958084760206D49096809587A
:1005A000084764206A49096809580847682068496B
:1005B0000968095808476C206549096809580847BF
:1005C0007020634909680958084774206049096820
:1005D0000958084778205E490968095808477C206F
:1005E0005B49096809580847802059490968095832
:1005F0000847842056490968095808478820544903
:100600000968095808478C20514909680958084762
:1006100090204F4909680958084794204C490968B7
:100620000958084798204A490968095808479C20F2
:100630004749096809580847A020454909680958E9
:100640000847A4204249096809580847A82040499A
:10065000096809580847AC203D4909680958084706
:10066000B0203B49096809580847B420384909684F
:1006700009580847B8203649096809580847BC2076
:100680003349096809580847C020314909680958A1
:100690000847C4202E49096809580847C8202C4932
:1006A000096809580847CC202949096809580847AA
:1006B000D0202749096809580847D82024490968E3
:1006C00009580847DC202249096809580847E020F2
:1006D0001F49096809580847E4201D490968095855
:1006E0000847E8201A49096809580847EC201849C2
:1006F000096809580847F02015490968095808474A
:10070000F4201349096809580847F8201049096876
:1007100009580847FC200E490968095808475FF442
:1007200080700B490968095808475FF482700849CE
:100730000968095808475FF4847005490968095831
:100740000847000003480449024A034B7047000071
:1007500000000020C0080000C008000040EA0103BB
:1007600010B59B070FD1042A0DD310C808C9121F5A
:100770009C42F8D020BA19BA884201D9012010BD94
:100780004FF0FF3010BD1AB1D30703D0521C07E061
:10079000002010BD10F8013B11F8014B1B1B07D1C5
:1007A00010F8013B11F8014B1B1B01D1921EF1D136
:1007B000184610BD7047704770470000014B1B681A
:1007C000DB681847000000201C481D497047FFF7F0
:1007D000FBFFFFF799FC00BD20BFFDE74FF0FF31A5
:1007E000184C24688C420DD1174B1B6899420ED1CE
:1007F000164B1B68164A136018684FF0FF31884289
:10080000EAD00BE0134880F30888134B1847104ACE
:10081000136018684FF0FF318842DDD080F30888FC
:100820004FF02021884204DD0C48026802210A436F
:1008300002605B68184700000346DBE7C008000061
:10084000C00800000020000014100010B0080000D4
:1008500000000020000400201104000024050040D6
:100860006FF00200704502D1EFF3098101E0EFF370
:100870000881886902380078182803D100E0000058
:10088000074A1047074A12682C32126810470000C6
:1008900000B5054B1B68054A9B58984700BD0000F2
:1008A000FF02000000000020B0080000040000006B
:0C08B00000300000002000000024F400D4
:10300000F0210020C1D50100E14100001FD50100E1
:10301000E1410000E1410000E1410000000000004A
:1030200000000000000000000000000025D60100A4
:10303000E141000000000000E1410000E14100002A
:103040008DD6010093D60100E1410000E14100006E
:10305000E1410000E1410000E1410000E1410000E8
:1030600099D60100E1410000E14100009FD6010036
:10307000E1410000A5D60100ABD60100B1D60100A8
:10308000E1410000E1410000E1410000E1410000B8
:10309000E1410000E1410000E1410000E1410000A8
:1030A000B7D60100BDD60100E1410000E1410000BA
:1030B000E1410000E1410000E1410000E141000088
:1030C000E1410000E1410000E1410000E141000078
:1030D000E1410000E1410000E1410000E141000068
:1030E000E1410000E1410000E1410000E141000058
:1030F000E1410000E1410000E1410000E141000048
:10310000E1410000E141000000F002F81AF035FA58
:103110000AA090E8000C82448344AAF10107DA4532
:1031200001D11AF02AFAAFF2090EBAE80F0013F033
:10313000010F18BFFB1A43F00103184788A60100CE
:10314000B8A601000A4410F8014B14F00F0508BF9F
:1031500010F8015B240908BF10F8014B6D1E05D063
:1031600010F8013B6D1E01F8013BF9D1641E03D03C
:10317000641E01F8015BFBD19142E4D3704700006B
:10318000103A24BF78C878C1FAD8520724BF30C893
:1031900030C144BF04680C60704700000023002465
:1031A00000250026103A28BF78C1FBD8520728BF57
:1031B00030C148BF0B6070471FB51AF09CFA00F091
:1031C00031F88DE80F001FBDF0B440464946524625
:1031D0005B460FB402A0013001B50648004700BFAE
:1031E00001BC86460FBC8046894692469B46F0BC91
:1031F00070470000093100008269034981614FF086
:1032000001001044704700000D32000001B41EB4EC
:1032100000B501F0E0FE01B40198864601BC01B0A2
:103220001EBD00001AF0A6B910B504460021012009
:1032300000F034F80021182000F030F800210B20B5
:1032400000F02CF80221192000F028F802210D20AE
:1032500000F024F802210E2000F020F802210F20B7
:1032600000F01CF80221C81F00F018F803211620F6
:1032700000F014F80321152000F010F8204600F0AB
:103280001FF8002010BD68210180704700F028B8A9
:103290000A48704700F02CB8704770474907090E7C
:1032A000002806DA00F00F0000F1E02080F8141D7D
:1032B000704700F1E02080F80014704703F90043E4
:1032C00070B5304C054608202070A01CFFF7DBFFCE
:1032D0005920A08029462046BDE8704000F0C5BBBB
:1032E00010B500F0CCFB27490020891E087010BDE6
:1032F0002DE9F041234E0446B61E0D4630780127D5
:1033000038B1A4F160000B280AD8204600F024FF51
:103310002DE0602CF9D043F201000860BDE8F08197
:10332000A4F16C00032803D8204600F050FF1EE0F3
:10333000A4F170001F2803D8204600F041F916E0E0
:10334000A4F190000F2803D8204600F0EEF80EE01C
:10335000A4F1A0000F2803D8204600F079F806E079
:10336000A4F1B0000F2804D8204600F0E2F928604C
:1033700000E02F60602CD1D128680028CED13770B2
:10338000CCE700001A0000204FF0E0214FF400408D
:10339000C1F8800124490020087024494FF0607072
:1033A0000860704770B5204D04462878A0421CBFC5
:1033B000002C002803D01EA14C201AF0AAF828786F
:1033C000A04208BF70BD2C701E49184A00200CB3E3
:1033D0001D4DDFF878C0131F012C07D0022C0FD031
:1033E000BDE8704012A167201AF093B8086002206F
:1033F0000860CCF800504FF040701060186070BD4D
:10340000086003200860CCF800504FF40000106002
:10341000186070BD086008604FF06070106070BD8B
:1034200003A170201AF075B82000002008F50140B3
:103430007372635C68616C5F63636D5F6161722E60
:103440006300000000F500408801002014F50040F2
:1034500030B4A0380B2865D2DFE800F0060D161F47
:10346000273039404A515B00D1E90132087830BC3D
:10347000194603F06CB988888A6883B2088830BC22
:1034800080B2194603F073B9D1E9022308884C6869
:1034900080B2214630BC03F06BB9D1E90132088813
:1034A00030BC80B2194603F07EB988888A6883B23E
:1034B000088830BC80B2194603F08AB988888A68C7
:1034C00083B2088830BC80B2194603F0C8B90888B6
:1034D0004A6830BC80B2114603F00DBA088982B246
:1034E000888883B2088830BC80B2194603F00DBAD0
:1034F00008884A6830BC80B2114603F02CBA0889AB
:103500004C6882B20888CB68214630BC80B203F098
:1035100090BAD1E9022308884C6880B2214630BCB9
:1035200003F08DBB30BC012070479038092845D28C
:10353000DFE800F0050D13191F262F373D0088889E
:103540008A6883B20888194680B204F0B3B8088844
:103550004A6880B2114604F0F0B808884A6880B220
:10356000114604F0F8B808884A6880B2114604F0A1
:1035700000B9D1E901320888194680B204F00EB9C9
:10358000088982B2888883B20888194680B204F01C
:103590000AB908894B6882B20888194680B204F0DB
:1035A00023B908884A6880B2114604F02EB9888889
:1035B00082B20888114680B204F088B901207047B1
:1035C00030B470381B287DD2DFE800F00E141820CC
:1035D00024272E353A3F43474B535960697179840C
:1035E0008B93989C9FA6A90008784A6830BC114626
:1035F00007F025BC086830BC07F070BC0C790B7B69
:103600008A680868214630BC07F078BC086830BC7E
:1036100007F009BD30BC07F056B908884A6830BCCD
:1036200080B2114607F027BE08880A7930BC80B204
:10363000114607F0BEBE087830BC40B207F0C9BEE4
:10364000088830BC80B207F0DFBE086830BC07F0E5
:10365000EDBE086830BC01F011BC086830BC01F058
:103660003DBC088982B2D1E9000330BC194607F09D
:10367000FFBED1E9000230BC114607F04ABF0888FE
:103680004A6830BC80B2114609F011BAD1E9022370
:103690000C790888214630BC80B209F0D0BA08887D
:1036A0000B798A6830BC80B2194609F07BBCD1E93D
:1036B0000132088830BC80B2194609F0EBBCD1E970
:1036C000022300E032E008884C6880B2214630BC1A
:1036D00009F046BD08884A6830BC80B2114609F03E
:1036E0007ABD08880A7A0B7930BC80B2194607F097
:1036F00031BF088830BC80B207F02FBF086830BCEB
:1037000007F030BF30BC07F0BFB8D1E900038A68CA
:1037100030BC194607F08EBF30BC07F09EB8088851
:103720004A6830BC80B2114608F055B830BC012060
:103730007047B02805D0B12807D0B22809D00120A1
:103740007047088880B20AF035B9088880B20AF05C
:1037500050B9D1E901320888194680B20AF05AB945
:103760000A280ED2DFE800F005070509090B0B0552
:10377000050507F0D0B809F0FFBE01F060BA06F009
:103780002DBAFEA140F2E22019F0C3BE7FB5FF4979
:103790000646FF4AD1E90001CDE901014FF49860E6
:1037A000ADF80C000F230A21A2F128000AF02FFE29
:1037B0000024AFF253000AF04BFE641CE4B20A2C62
:1037C000F7D304200090F24801231A4603A9F030F1
:1037D0000AF031FA20B1E9A14FF4AD7019F099FE69
:1037E000EC4C002075682070EB4920462844486066
:1037F000E01C20F00300A04204D0E8A14FF4977031
:1038000019F087FEA8B20422214604F09CFC20B1E6
:10381000E2A14FF4A07019F07CFE00211E220846A0
:1038200004F0A0F807F0CCFA02222421DF4801F0CE
:103830008DFBDE4801222C214C3001F087FBDB4957
:103840000B20B03901F006FA20B1CCA14FF4B770CB
:1038500019F05FFE09F062FE02F045F901AB0022AB
:103860000821D3A007F06AF920B1C4A14FF4BA70BF
:1038700019F04FFE304602F06EFC20B1BFA14FF4AC
:10388000BB7019F046FE4FF45B71CC4819F00DFE89
:10389000CA4801214171022181710621C1717FBD98
:1038A00010B5C64CA078092804D3B4A14FF4D77042
:1038B00019F02FFE207800EB400004EB401010F8C8
:1038C0000C1F21F0FF010170417821F00701C91C94
:1038D00021F0180141700121E17010BD70B50D4655
:1038E000002114461980072828D2DFE800F02704B9
:1038F0000B191227200021462846BDE870401A46C1
:1039000009F05BBE21462846BDE870401A4606F025
:1039100041BE21462846BDE870401A4601F08CBFE2
:1039200021462846BDE870401A4603F003BD2146F3
:103930002846BDE870401A4600F0D1BB8FA140F286
:103940000D2019F0E6FD032070BD70B59B4CE078AA
:10395000002819D02078002500EB400004EB40102F
:10396000407B00F0070001190879401E087120789B
:10397000401CC0B22070092800D12570A078401CDE
:10398000A0700AF015FFE57070BD8C48C079002862
:1039900000D085E7704770B5884DA86860B1FFF723
:1039A000F4FF002860D06022A96819F02AFDFFF713
:1039B000CCFF0020A860F0E76879002854D0FFF71A
:1039C0006FFF044679484C3001F0D0FA606020B9AE
:1039D0006AA14FF44B7019F09CFD60680AF0AAF8D8
:1039E00068B1204606F0AEFC6078010703D520F0F0
:1039F0000700401C29E06D4861684C302BE06B48A3
:103A000061684C3001F0BBFA00F01EFB00282BD19E
:103A1000FFF746FF0446654801F0A8FA606020B948
:103A200056A140F24F3019F074FD60680AF084F836
:103A3000A0B1606800886080204609F0F3FD6078DE
:103A4000010706D520F00700801C6070FFF77DFF9E
:103A5000A3E75648616801F092FA9EE76168BDE805
:103A60007040524801F08BBA70BD10B54A4CC4E9A1
:103A70000201AFF2DD0000F0E2FB607010BD4649CC
:103A800000200870704730B505464FF080500C4656
:103A9000D0F8A41095B0491C05D1D0F8A810C9439E
:103AA0000904090C08D050F8A01F01F00101297089
:103AB00041682160806812E02B208DF8000009A980
:103AC00068460AF00FF820B12CA14FF4197019F0D4
:103AD00020FD012028700A982060BDF82C00A080ED
:103AE0002878002803D0607940F0C000607115B0DC
:103AF00030BDF0B54FF080540746D4F8800095B043
:103B00000D462B26401C0BD1D4F88400401C07D155
:103B1000D4F88800401C03D1D4F88C00401C0BD092
:103B2000D4F880003860D4F884007860D4F8880035
:103B3000B860D4F88C001EE08DF82C6069460BA8A4
:103B400009F0D0FF20B10DA140F28D2019F0E1FC69
:103B500001983860029878608DF82C6069460BA84F
:103B600009F0C0FF20B105A14FF4257019F0D1FC78
:103B70000198B8600298F86022E000007372635CFC
:103B8000686F73745F636F72652E630000D7010006
:103B9000DC01002000220020240000207372635CFE
:103BA000686F73745F636F72652E6300A80B0020EB
:103BB0006E52463531383232000000008C0700204A
:103BC000D4F89000401C0BD1D4F89400401C07D1CD
:103BD000D4F89800401C03D1D4F89C00401C08D0B5
:103BE00054F8900F286060686860A068A860E0687A
:103BF00020E08DF8006009A9684609F073FF28B13C
:103C0000AFF2880140F2B22019F083FC0A982860D4
:103C10000B9868608DF8006009A9684609F062FF9A
:103C200028B1AFF2A80140F2B92019F072FC0A984D
:103C3000A8600B98E86015B0F0BD70B5F84C05466B
:103C4000A06828B1AFF2CC014FF4427019F061FCCA
:103C5000A56070BD10B50146F24801F090F9F04939
:103C60008879401CC0B28871012805D1EE4840789F
:103C7000BDE8104000F005BB10BD70B50446A1F5CD
:103C80007F4016460D46FF3805D1AFF2101140F2C5
:103C90007D3019F03EFC012E07D0AFF22011BDE8B7
:103CA00070404FF4637019F034BC207820F00F009E
:103CB000801D20F0F0006030207000202072A5816F
:103CC0000120A07370BD70B515460C460646FFF77F
:103CD0005CFE90B1017821F00F01891D21F0F00107
:103CE0006031017046800121017221680161A18863
:103CF00081820573BDE8704027E63046BDE870401C
:103D0000132107F056BBC8494968884201D21020E8
:103D10007047032101700020704770B5C24C054602
:103D200094B02078002610B1082014B070BDBF4AAE
:103D30006260954201D21020F7E7686848B1092116
:103D4000D82804D3C31C23F00303834205D00846BC
:103D5000EBE74FF4C06068600DE0B549891A4FF099
:103D60008052D2F80C2101EB8221A1F50061814241
:103D700001D20421EBE700F053FF6178A0680CF05A
:103D800048FCE068401E07280BD830218DF8001051
:103D90008DF8020068460EF018F810B109A80CF072
:103DA000F3FD2846FFF7F2FC012020703046BCE707
:103DB0002DE9F05FDFF870B204460F46DBF804002F
:103DC000814207D30CB1844204D3E01C20F00300ED
:103DD000A04202D01020BDE8F09F91484FF00008AB
:103DE000817899B14178824601EB410100EB4115A0
:103DF000B7F8009015F80C0F3B4600F00F000022BA
:103E00002946FFF76BFD060004D013E0A7F80080F9
:103E10000520E0E794B13988494501D90C260DE029
:103E200028783B4600F00F0022462946FFF756FD52
:103E3000060005D00C2E01D0A7F800803046CAE756
:103E40009AF801005446401CC0B28AF801000928C3
:103E500001D184F80180A078401EA070687800F03D
:103E60000701012910D0022908D003291CD0AFF284
:103E7000F42140F2294019F04CFBDFE7C006DDD405
:103E80006868FFF7E7FED9E7664869684C3001F0DB
:103E900076F86079401CC0B260710128CED19BF8E1
:103EA000010000F0EEF9C9E7E079401C8AF807004C
:103EB000C4E7604A904208D35B4AB0F5802F52684D
:103EC00001D3904201D3914201D21020704700F0FB
:103ED000F8BE584B10B5994208D3534BB1F5802F1B
:103EE0005B6801D3994201D39A4201D2102010BDE0
:103EF000022803D0102801D0092010BD00F006FFD1
:103F00000028FAD0052010BD4A4B10B598420BD3BB
:103F1000454BB0F5802F5B6801D3984204D399429A
:103F200002D31AB19A4201D2102010BD00F00DFF49
:103F30000028FAD0072010BD10B504463A4894B0C6
:103F40004068844202D2102014B010BD0F208DF8BA
:103F5000000009A9684609F0C5FD0028F4D19DF8C4
:103F60002C002070BDF82E006080BDF83000A080CD
:103F70000020E9E751B12C4A5268914202D30B6804
:103F8000934201D2102070478A880AB101F008BE1E
:103F90000920704710B5274A94B091420ED3224AA7
:103FA0004FF480239942526801D3914206D3441EB4
:103FB0001E2C25D8994203D3914201D21020C3E789
:103FC00001281BD108784FF0000410F0010F03D036
:103FD00003208DF8020001E08DF8024038208DF8B2
:103FE000000009A9684609F07DFD28B1AFF25441EF
:103FF00040F2272019F08DFA2046A5E70720A3E715
:10400000A0F120021F2AF9D814B0BDE8104006F034
:1040100019BE054A526891420ED210207047000026
:104020008C070020A80B0020240000200022002084
:104030000000002000F00100A0F120021F2A01D89A
:1040400006F07ABE0720E9E7F0B595B03B208DF881
:104050002C0069460BA809F045FD28B1AFF2C44118
:104060004FF4C47019F055FA43F2040600246D466B
:104070002FE02F19B87DC10706D0400704D405EB07
:104080004400C08809F0F3FB32488079F8B1B87D6C
:1040900080071CD505EB44000022C088062109F0EA
:1040A00003FCA0B13C208DF82C0005EB44006946D0
:1040B000C088ADF82E000BA809F014FD06000CD046
:1040C000AFF2285140F29D1019F023FA05E0641C6C
:1040D000E4B29DF80400A042CBD83046ABE52DE910
:1040E000F04105460C4600270078062190463E46E2
:1040F000B1EB101F05D0AFF25C514FF4E37019F033
:1041000008FA287A80B1012815D0AFF2705140F238
:10411000E71019F0FEF900BFA8F800600CB1278085
:1041200066800020BDE8F081022709267CB1A889BD
:10413000A080A87B09E00327142644B16888A080EA
:104140002869E060A88A2082287B2072E4E7A8F82A
:104150000060E6E78C07002060380A2835D2DFE8E7
:1041600000F005080D10151B21242A2F0868FFF701
:10417000D4BDD1E900021146FFF71ABE0868FFF767
:10418000C2BDD1E900021146FFF793BED1E9013269
:1041900008781946FFF79DBED1E900038A681946E1
:1041A000FFF7B2BE0868FFF7C7BE08884A6880B24A
:1041B0001146FFF7DFBED1E900021146FFF7EABE64
:1041C000D1E900021146FFF724BF0120704701200A
:1041D000704700000E4A12680C498A420AD11847FB
:1041E0000B4A1268094B9A4204D101B500F0EAFE6D
:1041F00003BC8E460749096809580847064807491D
:10420000054A064B7047000000000000BEBAFECA17
:104210006400002004000020F0210020F021002094
:104220004FF0E0214FF00070C1F88001C1F880022A
:10423000394B402283F80024C1F80001704710B5C3
:1042400002460420354903E001EBC0031B7943B16A
:10425000401EC0B2F8D232A1432019F05AF9FF2013
:1042600010BD41F8302001EBC00100224A718A7173
:1042700001220A7110BD294A002102EBC000017120
:10428000704710B50446042803D325A1522019F025
:1042900040F9224800EBC4042079012803D020A172
:1042A000532019F036F96079A179401CC0B28142DF
:1042B00000D060714FF0E0214FF00070C1F80002B3
:1042C00010BD70B51448042590F80004134E400941
:1042D000194C02281BD012A1692019F01AF916E016
:1042E000217806EBC1000279012A08D1427983794D
:1042F0009A4204D04279827156F831008047207882
:10430000401CC0B22070042801D3002020706D1E14
:10431000EDB2E5D270BD000019E000E0240C0020F1
:104320007372635C736F635F7369676E616C6C69F2
:104330006E672E63000000003400002010B5EFF31C
:10434000108000F0010472B6D0484178491C4170D9
:104350004078012801D10AF053FA002C00D162B64E
:1043600010BD70B5C94CE07848B90125E570FFF77C
:10437000E5FF0AF04DFA20B100200AF020FA0020F3
:1043800070BD4FF08040A571C0F80453F7E770B5D9
:10439000EFF3108000F0010572B6BC4C607818B9DC
:1043A000BBA1912019F0B5F86078401E607060786C
:1043B00008B90AF029FA002D00D162B670BDB348E1
:1043C00010B5C17821B100218171C170FFF7DFFF05
:1043D000002010BD10B504460AF01AFAAB49C9789E
:1043E000084000D001202060002010BD2DE9F05FC2
:1043F0000026A64C08210422102320270125B046C0
:10440000E6714FF0020A0D282CD2DFE800F0070910
:104410000C0E101214161F2124262800657126E0A8
:1044200084F805A023E0627121E061711FE06371EF
:104430001DE067711BE0012619E0FFF77FFF00BF59
:104440000AF0E6F90028FBD0022610E0627100E0D5
:104450006171E5710BE06371FBE76771F9E740207B
:104460006071F6E78AA140F2651019F052F80AF07F
:10447000DCF948B10AF0E0F9B04205D130460AF063
:10448000DFF90028FAD032E04FF08047FD60C7F82E
:10449000048183490E60C7F804A3BD60C7F810818A
:1044A000DFF800B2DBF80010C94341F3001101F15D
:1044B0000109DBF8001041F01001CBF8001000E01A
:1044C00020BFD7F804010028FAD030460AF0B8F926
:1044D0000028FAD0B9F1000F05D1DBF8001021F067
:1044E0001001CBF80010C7F808A3C7F80481E079E1
:1044F00060B10AF08DF907460AF0DAF86FF0004172
:1045000017B1C4E9021001E0C4E902011EB184F848
:104510000480BDE8F09F2571BDE8F05F00F094B81D
:1045200010B504460AF07AF928B158490120C8703C
:104530004A78521C4A702046BDE8104056E72DE9E3
:10454000F0414FF08045D5F808010026012803D13D
:10455000C5F808610AF033F9D5F80401012801D142
:10456000C5F80461D5F800010127484C01280ED197
:10457000C5F80061A07918B100200AF020F9A671F1
:10458000207820B10AF044F908B12F61A770207992
:1045900030B3D5F81001012824D1C5F810616F613E
:1045A000E079B0B10AF034F980460AF081F8B8F148
:1045B000000F01D0E16800E0A168411A022902DA87
:1045C00011F1020F0EDCB8F1000F01D0E06000E045
:1045D000A060FFF7B3FE0AF01BF910B12F61A770BE
:1045E00000E02770D5F80C0101280ED1A07818B989
:1045F00027A1F12018F08DFFC5F80C612A4800684A
:10460000A6702670BDE8F041C1E6BDE8F08170B546
:104610001E4DE87808B90AF0F7F801208407A06178
:10462000A87850B1D4F80C0120B900200AF008F99C
:104630000028F7D10020C4F80C014FF0FF30C4F877
:1046400008031A48006870BD2DE9F0411927BC071E
:10465000C4F808734FF00008C4F80081C4F80C8156
:104660000AF0D6F8094E012510B12561B57000E0B9
:104670003570FFF763FEC4F804730949707920317F
:104680000860A561C4F810816561BEE738000020AC
:104690007372635C736F635F636C6F636B2E630035
:1046A0001805004010ED00E00C0100400803004038
:1046B00010B50D2000F06DF8C4B26FF0040000F0EA
:1046C00068F8C0B2844203D039A11B2018F021FF42
:1046D0003C490120086010BD70B50D2000F043F882
:1046E000394C0020C4F800010125C4F804530D2002
:1046F00000F044F825604FF0E0216014C1F800019B
:1047000070BD10B50D2000F02EF82F48012141603A
:104710000021C0F800112D480068BDE810400D20B0
:1047200000F02CB82849D1F80001012803D020A1BD
:104730005E2018F0EEBE2348001D00680022C0B2C3
:10474000C1F800212149096809F0C3BC10B51E4811
:10475000D0F800110029FBD0FFF7E4FFBDE81040BE
:104760000D2000F00BB800F01F020121914040091C
:10477000800000F1E020C0F88011704700F01F02B7
:10478000012191404009800000F1E020C0F8801232
:104790007047002806DA00F00F0000F1E02090F8E2
:1047A000140D03E000F1E02090F800044009704788
:1047B0007372635C736F635F68616C5F726E672EA8
:1047C0006300000004D5004000D0004000D100404C
:1047D00030B44FF0E0204FF400644FF0010C0021A2
:1047E000C0F88041E510C0F880516303C0F8803103
:1047F000E34A82F80014D21E82F80014E14A82F8DB
:104800000014E14AC2F804C0C2F808C0C2F840115E
:10481000C2F84411C2F84811DC490968C0F8804266
:10482000C0F88052C0F88032C0F80041C0F80031B2
:10483000C2F800C030BC704770B401204FF0E023D4
:10484000C6024FF0000CC3F880610402C3F8804137
:104850000506C3F88051CC4A50609060CC4801688E
:104860000029FCD1C2F840C1C2F844C1C2F848C115
:10487000C6480068C3F88062C3F88042C3F880521B
:1048800070BC70474FF0E0204FF40061C0F8801218
:10489000C910C0F880127047002804BFBD48704797
:1048A000012804BFBC487047022804BFB7487047BE
:1048B00010B59120B9A118F02CFE002010BDB2490E
:1048C000002238B1012825D002282FD0B3A1BF2063
:1048D00018F01FBE4FF48030C1F80803C1F8480338
:1048E000B54B1A60C1F84021B4490968B44BC10303
:1048F0001960B449C1F808034FF0E0230012C3F86F
:104900008001B1480260C1F84021C1F80022AF48DF
:10491000027070474FF40030C1F80803C1F8480333
:10492000AB480260C1F844219B480AE04FF4802064
:10493000C1F80803C1F84803A6480260C1F848213D
:10494000924800687047F0B4DFF83CC204260025A6
:10495000012440B101283FD0022857D0F0BC8FA1DC
:10496000F42018F0D6BD881E20F07F414FF480302F
:10497000CCF80803CCF84051CCF84403CCF84015EF
:10498000012B14BF00210121904B59708D494C60BF
:10499000CC60DFF844C2CCF80050904D4FF0020CD0
:1049A000C5F800C0DFF838C2CCF80060DFF818C2E4
:1049B0003D32CCF80020C1F800424FF0E02C8A15BF
:1049C000CCF88022C1F80403CCF800210804854902
:1049D00008601C70F0BC704783484FF40032012B14
:1049E0000AD100BFC0F84051CCF80423CCF84423CE
:1049F000C0F84015F0BC7047CCF80823C0F840510F
:104A0000CCF84423C0F84015F0BC704777484FF409
:104A10008022012BF0D1E5E75D480068704770B552
:104A2000594CD4F84001002501280AD1D4F80803D4
:104A300010F4803F05D04FF48030C4F80803C4F868
:104A40004051D4F8440101280DD1D4F8080310F4E2
:104A5000003F08D04FF40030C4F80803C4F84451B4
:104A600001200AF0CCFFD4F8480101280DD1D4F878
:104A7000080310F4802F08D04FF48020C4F80803F6
:104A8000C4F8485102200AF0BAFF4048006870BDDF
:104A90004E490878E0B14A4A4FF000401060494A58
:104AA000C00BC2F8080303124FF0E02C0020CCF832
:104AB0008031454B1860C2F84001C2F8000208700E
:104AC0004A78002A08BF7047487000200AF097BF54
:104AD00003200AF094BF4FF0E0214FF08070C1F83E
:104AE000000270474FF0E0214FF08070C1F8800263
:104AF00070474FF0E0214FF40010C1F800027047FA
:104B00004FF0E0214FF40010C1F8800270472D48AB
:104B100001214160C1604FF0E0218015C1F88002A1
:104B20007047410A43F609525143C0F3080010FB95
:104B300002F000F5807001EB50207047430B48F203
:104B4000376C03FB0CF31B0C4FEA432CC1F800C07D
:104B5000DFF89CC003FB0C0326484CF2F72C5843AB
:104B6000400D10FB0CFC0CEB432303F580735B1230
:104B700013700A681044086070470BF045B80000D5
:104B80000BE000E018E000E000B0004048B1004059
:104B900004B500404081004044B100407372635C42
:104BA00072656D5F68616C5F6576656E745F746970
:104BB0006D65722E6300000040B5004040B10040BA
:104BC00008F501400080004040850040480000207A
:104BD00044B5004048B500400485004008850040C9
:104BE0001085004004F5014004B0004008B00040CA
:104BF000F7C2FFFF6F0C010010B50AF0EAFF10BD0D
:104C0000002005490860012001218140034A430931
:104C100042F8231000BF7047FC1F004080E200E014
:104C200010B50DF0EDF909F094F9FEF7ADFB0FF0BA
:104C30004FFB0EF0ADF8BDE810400EF02FB870B588
:104C40000C46054603F0E2F921462846BDE87040CF
:104C50000FF06FB870B50D46040011D085B1210179
:104C6000284618F000FC10224F49284618F084FB13
:104C70004D4801210838018044804560002070BD06
:104C8000012070BD70B5484E00240546083E10E076
:104C90007068AA7B00EB0410817B914208D1C17B34
:104CA000EA7B914204D10C22294618F039FB30B13D
:104CB000641C30888442EBDB4FF0FF3070BD20462F
:104CC00070BD70B50D46060009D045B1364C083CA4
:104CD00020886188401C884203D9042070BD1020C0
:104CE00070BD3046FFF7CEFF002801DB401C0AE014
:104CF00021886068102200EB0110314618F03CFB5F
:104D00002088401C20802870002070BD70B514469B
:104D10000D0018D0BCB10021A170022802D01028CB
:104D200011D105E0288870B10121A170108008E040
:104D30002846FFF7A7FF002805DB401CA070A889C4
:104D40002080002070BD012070BD70B5054614465E
:104D50000E000BD000203070A878012808D005D9AB
:104D60001149A1F108010A8890420AD9012070BDB9
:104D700024B1287820702888000A5070022008701A
:104D80000FE064B14968102201EB00112046103990
:104D900018F0F2FA287820732888000A607310202F
:104DA0003070002070BD000054000020654988422A
:104DB00006D3B0F5802F05D363490968884201D234
:104DC000102070470146012005F074B830B593B04B
:104DD000044600200D460090142101A818F065FB40
:104DE0001C2108A818F061FB9DF80000CDF808D040
:104DF00020F00F00401C20F0F00010308DF8000073
:104E00009DF8010006AA20F0FF008DF801009DF832
:104E1000200001A940F002008DF8200001208DF84B
:104E2000460042F60420ADF8440011A80190208805
:104E3000ADF83C006088ADF83E00A088ADF84000B9
:104E4000E088ADF842009DF8020020F00600801CCA
:104E500020F001008DF802000820ADF80C00ADF83C
:104E600010000FA8059008A800F02AFF002803D121
:104E7000BDF818002880002013B030BD3EB50446B0
:104E80000820ADF800002F48844206D3B4F5802FE7
:104E900005D32D480068844201D210203EBD214632
:104EA000012005F007F80028F8D12088ADF80400AB
:104EB0006088ADF80600A088ADF80800E088ADF87D
:104EC0000A0005F038FE01AB6A46002101F03CFB08
:104ED000BDF800100829E1D003203EBD1FB50446EF
:104EE000002002900820ADF808001648CDF80CD03C
:104EF000844206D3B4F5802F06D313480068844259
:104F000002D2102004B010BD05F015FE014602AA21
:104F10004FF6FF7001F0A3FC0028F3D1BDF8081094
:104F2000082901D00320EDE7BDF800102180BDF86D
:104F300002106180BDF80410A180BDF80610E18068
:104F4000E0E7000000F001002800002010B5031D7C
:104F500003600020521E04E05C181C60401C2346C5
:104F6000C0B29042F8DB0020186010BD024600205D
:104F70001168002902D0084609681160704702686C
:104F80000A6001607047000010B501462022094800
:104F900018F0F2F907490020C877084610BD064905
:104FA000012008600548064A0168914201D10021AC
:104FB00001607047B40E002014050040640000201A
:104FC000BEBAFECA0C4908784A78401CC0B290426A
:104FD00000D00870704708484FF0E02220BF40BF63
:104FE00020BF417803784370D2F8003213B90378B8
:104FF0008B42F3D0002070476B0000207047704751
:1050000010FFFFFFDBE5B15100F001006800FFFF7A
:1050100040F2090CC2F2000C6047000018B1817820
:1050200001293CD101E010207047018842F60213AB
:10503000C81A4FF48072994233D01CDC42F6010347
:10504000A1EB030099422CD00CDCF9B1B1F5C05FA3
:1050500027D06FF4C050081823D0A0F57060FF3837
:105060001DD11EE001281CD002281AD0FF2818D01C
:10507000904214D115E0904213D008DC012810D0E2
:1050800002280ED0FE280CD0FF2808D109E0A0F598
:105090008070013805D0012803D0022801D00020FB
:1050A00070470F2070470B2826D008DC1BD2DFE8A2
:1050B00000F01C2025251A25292325271E0011284C
:1050C0001CD008DC0C2817D00D281DD00F2815D0B7
:1050D000102808D110E0822809D0842810D0852813
:1050E00010D0872812D00320704700207047052079
:1050F000704743F203007047072070470F20704746
:1051000004207047062070470C2070474FF4505021
:10511000704730B551B1A1F201158123CCB2112DE8
:105120001CD2012805D0022808D00AE00020107007
:105130001DE0A1F5807003381BD002E0B1F5817F3E
:1051400017D0112D15D2DFE805F014111114111428
:10515000141114141411111111141100A1F5C070BF
:105160001F2803D9A1F2FD11022902D814700020D2
:1051700030BD1370072030BD06280CD2DFE800F0E8
:105180000305030B07090020704711207047072013
:1051900070470820704703207047007810F00F0216
:1051A00004D0012A05D0022A0AD10EE0000907D155
:1051B00008E00009012805D0022803D0032801D007
:1051C000072070470870002070470620704738B1EC
:1051D000012809D002280FD0032815D007207047D6
:1051E000087820F0FF0016E0087820F00F00401C3F
:1051F00020F0F00010300EE0087820F00F00401C86
:1052000020F0F000203006E0087820F00F00401C6D
:1052100020F0F000303008700020704738B50C46A0
:10522000050041D06946FFF7B8FF002819D19DF865
:105230000010208861F38B2020806946681CFFF7EE
:10524000ACFF00280DD19DF80010208861F30D30CF
:105250002080A978C1F34101012903D0022904D09B
:10526000072038BD20F0200001E040F02000208021
:1052700080B210F4406F04D0A978C90861F38E3071
:10528000208080B210F4405F07D0A978090961F34B
:10529000CF30208010F4405F02D12088400403D535
:1052A000208840F040002080002038BD70B50446C2
:1052B0000020088015466068FFF7B0FF002816D16F
:1052C0002089A189884211D860688078C0070AD0F7
:1052D000B1F5007F0AD840F20120B1FBF0F200FBEB
:1052E0001210288007E0B1F5FF7F01D90C2070BDB6
:1052F00001F201212980002070BD10B504781378D7
:1053000064F3000313700478640864F341031370BA
:105310000478A40864F3820313700478E40864F347
:10532000C30313700478240964F30413137004781E
:10533000640964F3451313700078800960F38613E1
:10534000137031B10878C10701D1800701D5012060
:1053500000E0002060F3C713137010BD028812F440
:10536000406F02D0C2F3812306E012F4405F02D006
:10537000C2F3013300E001230A8863F38B220A8021
:10538000008810F4405F02D0C0F3013006E010F452
:10539000406F02D0C0F3812000E0012060F30D32A5
:1053A0000A8070472DE9F04792B00D00804613D077
:1053B000B8F1000F14D01221284618F054F803AAAF
:1053C000FF21012003F04BF80024264637464FF416
:1053D00020596FF4205A6DE0102012B0BDE8F0871C
:1053E0000720FAE79DF8160001280AD1BDF814003D
:1053F00048450BD010EB0A000AD001280CD0022837
:105400000CD0042C0ED0052C0FD10DE0012400E0AF
:105410000224BDF8126008E0032406E00424BDF86D
:10542000127002E0052400E00624BDF81210414588
:1054300040D12C7486B34FF005090DF134080EAA43
:10544000CDF80090CDE9012810230022FF2130463D
:1054500003F0A1F8F0B9BDF834002A46C0B20EA995
:10546000FFF754FCB0B9AE81B7B108AECDF80090EB
:10547000CDE9016813230022FF21384603F08BF8A1
:1054800040B9BDF83400F11CC01EC0B22A1DFFF7A0
:105490003DFC10B10320A0E70AE0BDF82100E8813F
:1054A000062C05D19DF81600A872BDF814002881BD
:1054B000002092E703A802F0DAFF002892D0FFF75D
:1054C000F2FD8AE7002805D0FE4A012903D002290F
:1054D00003D003207047518800E09188814201D1B8
:1054E000002070470720704770B50C4605461C2108
:1054F000204617F0B8FF0020208055B1012D06D0BE
:10550000BDE87040F0A140F26F2018F002B806200C
:1055100000E00520A07070BD70B592B00646012075
:105520008DF814008DF808008DF8153001F1080091
:10553000CDE9030248881546ADF81800FEF725FAB4
:10554000040018D065801720ADF80400009496F888
:1055500021100DF12A0301AA02A80EF004FA064652
:105560006078000701D5FEF7F0F956B13046FFF735
:1055700003FE12B070BD1321284605F01AFF032068
:10558000F7E708A80090BDF804300422012128465E
:1055900007F0ABFEEDE770B506468AB000200D4679
:1055A000059005240490069003A900940790CDE986
:1055B0000101024610232946304602F0ECFF68B98B
:1055C00004A9009108A8CDE90140BDF80C300022E3
:1055D0002946304602F0F0FD002801D0FFF763FDB8
:1055E0000AB070BD0EF0B3BB2DE9FC47054600279D
:1055F00000780C46B846B9460C286FD2DFE800F0B8
:10560000FF060B360A6F6F95B5F7C8D768680A387A
:10561000FEF720FBF8E0A888002280B28146042132
:1056200008F04CFB064624B1A7A140F2DD2017F09C
:1056300070FF26B9A4A140F2DE2017F06AFF4946A8
:1056400006F108000DF019FEFEF79FF9040008D0DE
:10565000607840F008006070A4F80290FEF775F9D9
:10566000D3E01321484605F0A4FEE2E024B996A158
:105670004FF43D7017F04DFF60880022042108F0C0
:105680001DFB060004D190A140F2F72017F041FF66
:10569000A6F80090002029791DE000BF05EBC002AC
:1056A000128992B2130707D5D30605D505EBC100C1
:1056B00030F8020C308006E052040AD5307105EB58
:1056C000C000C08870806078022740F008006070D9
:1056D0009AE0401CC0B28142E0D895E08FE0E888B3
:1056E000ADF8000024B978A140F2073017F011FF9F
:1056F0002878062814D1BDF80000000410D5608871
:105700000022042108F0DAFA060004D16EA140F26A
:10571000113017F0FEFE86F80490A888708035E0FE
:10572000607840F0080060706EE024B966A140F235
:10573000233017F0EEFE60880022042108F0BEFA44
:10574000060004D160A140F2263017F0E2FE06F117
:1057500008000EF050FB90F0010F02D1E888000421
:1057600052D560880227F080DAE724B956A140F2CA
:105770003F3017F0CEFE60880022042108F09EFA28
:1057800020B951A140F2423017F0C3FE0227C7E70B
:1057900024B94DA140F24B3017F0BBFE02276188BF
:1057A00001222046FEF769FA4FF00108B8E7A88900
:1057B000002280B28146042108F080FA064624B116
:1057C00041A140F25D3017F0A4FE26B93EA140F29F
:1057D0005E3017F09EFE686800902889ADF80400DE
:1057E000012269464846FEF76EFA0DE0FFE7002CFD
:1057F00096D135A14FF45A7017F08BFE90E732A185
:1058000040F26D3017F085FE9CB16078000710D52E
:10581000B8F1000F0DD12078582220F00F00001DA4
:1058200020F0F00080302070294604F1080017F0C5
:10583000E8FD3846BDE8FC872DE9FE4F05460C46DD
:10584000007A0A31029104F10C010191904600277F
:105850001631821E3E464FF0020B4FF0010A0091B6
:10586000082A7DD2DFE802F0F5047C43438CCFF4B4
:1058700068880022042108F021FA5FEA000904D1B7
:1058800011A140F2863017F044FEB9F8000010B1C3
:105890005227072601E151271E26002C6FD0688869
:1058A000A08084F806A099F80400029905EBC000D6
:1058B000C089FFF777FD00287DD199F8040005EB3A
:1058C000C0000BE0440C00207372635C6761747469
:1058D000735F636F72652E6300000000C0892081D2
:1058E00099F8040005EBC000408AA083F4E0B5F805
:1058F0001290062821D1E88900041ED5512709F10C
:10590000220086B2002CC9D0A8890199FFF74AFD70
:10591000002876D16888A08084F806B0A889208104
:1059200084F80AA0288AE083A4F820904A4669698E
:10593000DDF8000017F020FDCEE0502709F120002F
:1059400086B2002CAAD0A8890299FFF72BFD002867
:1059500057D16888A080A889E080287A062800E0CE
:10596000B4E00AD002202072288AA083A4F81E90F6
:105970004A4604F120006969DCE70120F3E790E082
:1059800068880022042108F099F9B5F812A05FEAAE
:10599000000905D1AFF2D00140F2EE3017F0B9FDA9
:1059A00009F108000EF027FA90F0010F02D1E88902
:1059B000000425D500E024E00AF12200512786B238
:1059C000002C77D06888A080A8890199FFF7EAFCAD
:1059D000002816D184F806B0A88920810420A0727E
:1059E000288AE083A4F820A052466969009817F03D
:1059F000C3FC002089F80400A989A9F802106BE013
:105A00000320BDE8FE8F688804F0AEF982466888FE
:105A10000022042108F052F98146BAF1000F05D1A5
:105A2000AFF25C1140F21A4017F073FDB9F1000FAC
:105A300005D1AFF26C1140F21B4017F06AFDB9F8C6
:105A40000600A0F57F41FF3904D05127222603E04C
:105A50001CE032E0502720261CB36888A080502F1D
:105A600007D084F806B0287B04F10801FFF73CFD5D
:105A700032E0287BA11DFFF737FD6A8800234946E5
:105A80005046FFF749FD0028BBD125E0FE49A88913
:105A9000C988814206D15427062614B16888A0809F
:105AA0001AE007E05327082624B16888A080A88957
:105AB000E08011E0A8F8006013E055270726002CCD
:105AC000F8D0A889A0800020A07105E0AFF20821DD
:105AD0004FF48D6017F01DFDA8F800600CB1278011
:105AE000668000208DE7E84900200870704730B5D7
:105AF00085B00C4601F079F90546FF2805D1AFF2D3
:105B0000382140F2834017F004FD002020802071EE
:105B100060804FF6FF70E080294604F108000DF028
:105B2000A0FB6A462946012002F099FC16E000BF5E
:105B3000BDF80400000711D5BDF806002946FFF79F
:105B40002AFDBDF80400FF2340F01000ADF804006A
:105B5000BDF806002946019A02F0B2FD684602F03F
:105B600086FC0028E4D005B030BD0A46014602F1AB
:105B700008000DF088BB70B505460022042108F02E
:105B80009DF8040005D1AFF2C02140F2A54017F006
:105B9000C0FC294604F10800BDE870400DF06DBB63
:105BA000F0B591B00C46074604F0DEF8050005D0CC
:105BB0002878222805D2082011B0F0BD43F2020057
:105BC000FAE700220421384608F078F806460CB1BE
:105BD000A08870B101208DF8040002208DF810001B
:105BE00000208DF8110034B1A088ADF818002068AD
:105BF00003E00920E0E7ADF81800059006F1080081
:105C0000CDE90207FDF7C1FE040017D06780172019
:105C1000ADF81C00009495F821100DF12A0307AA95
:105C200001A80DF0A0FE05466078000701D5FDF73C
:105C30008CFE4DB12846FFF79FFABDE71321384689
:105C400005F0B7FB0320B7E708A80090BDF81C30AB
:105C500004220121384607F048FB4FF6FF71F1801E
:105C6000AAE72DE9FF5F83460E9E98469146778806
:105C70008A46384604F078F8054600220421384662
:105C800008F01CF804462DB9AFF2C43140F20C50B4
:105C900017F03FFC2CB9AFF2D03140F20D5017F0A5
:105CA00038FC0834CDE90274CDE9008695F821105E
:105CB0004B46524658460DF013FB04B0BDE8F09F2A
:105CC0002DE9F04F9BB00D464FF000096E49ADF83D
:105CD0001490ADF81890ADF81C90A1F80490ADF8B0
:105CE0000C90ADF810900446ADF82490ADF82090DB
:105CF00008781646CB46012809D0022807D0032889
:105D000005D0042803D008201BB0BDE8F08F5F4801
:105D100084425FD35E4F4FF480229442396801D3AE
:105D20008C4257D38046454554D39246554501D3BE
:105D30008D424FD3606878B140454BD3504501D375
:105D4000884247D360892189884202D8B1F5007F13
:105D500001D90C20D8E781460CAA04A92846FFF7F0
:105D6000A5FA0028D0D168688078C0F341000228E5
:105D700009D1BDF8100010F4405F04D0286910B1BB
:105D80003968884226D303A92069FFF747FA00281B
:105D9000BAD1206948B160788007BDF80C0000F4E2
:105DA000405001D5F0B300E0E0BBBDF80C00810627
:105DB00012D510F4405F606804D068B13968884239
:105DC00008D300E040B1404504D3504504D33968BE
:105DD000884201D2102097E708A96069FFF71EFAF0
:105DE000002891D1606940B1BDF82000C0F3812145
:105DF000012937D110F4405F34D009A9A069FFF719
:105E00000DFA002880D1BDF8200080062AD4BDF804
:105E10002400810626D4A16941B1C0F38121012962
:105E200020D100E01EE010F4405F1BD0E06818B104
:105E30000078B8B11C2815D20DAA611C2046FFF7C6
:105E40005CFA01278DF84A7042F60300DA46ADF895
:105E500048004FF4806B0DF1370215A92868FEF752
:105E600074FF08B107204FE79DF8540014A9C01C27
:105E7000CDF800A0CDE901A100F0FF08002308F251
:105E80000122594612A805E0440C002000F0010050
:105E90002800002002F02DFA30BBBDF850000A9017
:105EA000FD492A8928690092CDE901016B89BDF875
:105EB00030202868049902F01CFA01007ED1DFF836
:105EC000D8B35546ABF1040B0521BBF80400ADF87F
:105ED00035000DA88DE8230043460022FF21BDF8C0
:105EE000500002F069F910B1FFF7DDF80CE79DF8FA
:105EF00034004FF0020A01064FF48060804622D53C
:105F000001468DF84A704FF42450ADF84800ADF8C2
:105F10004C5062789DF84C00002362F300008DF82D
:105F20004C006278CDF800A0520862F341008DF871
:105F30004C0013AACDE9012540F2032212A802F079
:105F4000D8F901003AD1606840B3206960B903A96B
:105F500004A8FFF703FA6078800705D4BDF80C00A9
:105F600020F44050ADF80C008DF84A7042F6011054
:105F7000ADF84800208940F20121B0FBF1F201FBAD
:105F80001202606807ABCDF80090CDE90103002351
:105F900012A8039902F0ADF901000FD12078C106D3
:105FA00001D480062CD5ADF82C50606968B908A9D9
:105FB00004A8FFF7D3F9BDF8200000E077E020F453
:105FC000406000F58060ADF82000BDF8200006A913
:105FD00040F0C800ADF820008DF84A7042F602107B
:105FE000ADF848000BAACDF800A0CDE901210023AF
:105FF00040F2032212A8089902F07BF9010056D161
:00000001FF
