:0200000270008C
:10A00000807F00207DD70700A5D70700A7D70700CE
:10A01000A9D70700ABD70700ADD7070000000000A5
:10A02000000000000000000000000000AFD70700A3
:10A03000B1D7070000000000B3D70700B5D707006D
:10A04000B7D70700B7D70700D5CC0700B7D70700A9
:10A05000B7D70700B7D70700B7D70700B7D70700AC
:10A06000B7D70700B7D70700B7D70700B7D707009C
:10A07000B7D70700B7D70700B7D70700B7D707008C
:10A08000B7D70700B5A80700B7D70700B7D70700AD
:10A0900075A90700B7D70700E9D60700B7D70700AB
:10A0A000B7D70700B7D70700B7D70700B7D707005C
:10A0B000B7D70700B7D70700000000000000000076
:10A0C000B7D70700B7D70700B7D70700B7D707003C
:10A0D000B7D70700B7D70700B7D7070000000000C1
:10A0E0000000000000000000000000000000000070
:10A0F0000000000000000000000000000000000060
:10A10000000000000000000000000000000000004F
:10A11000000000000000000000000000000000003F
:10A4000010B5054C237833B9044B13B10448AFF3AE
:10A4100000800123237010BD782C00200000000074
:10A4200048D80700084B10B51BB108490848AFF3DE
:10A4300000800848036803B910BD074B002BFBD010
:10A44000BDE81040184700BF000000007C2C002031
:10A4500048D80700742C002000000000154B002B8A
:10A4600008BF134B9D46A3F5803A00218B460F464B
:10A470001348144A121A00F065F80F4B002B00D055
:10A4800098470E4B002B00D0984700200021040075
:10A490000D000D48002802D00C48AFF3008000F0FA
:10A4A0002BF82000290002F0B7FE00F011F800BFE1
:10A4B00000000800807F0020000000000000000075
:10A4C000782C002040380020000000000000000030
:10A4D00008B5074B044613B10021AFF30080054BCC
:10A4E0001868836A03B19847204600F033F800BF2C
:10A4F00000000000E8D7070070B50E4B0E4CE41AC0
:10A50000A41000251E46A54204D056F825309847D1
:10A510000135F8E703F05CF9084C094BE41AA41084
:10A5200000251E46A54204D056F82530984701352F
:10A53000F8E770BD6C2C00206C2C0020702C0020E3
:10A540006C2C002002440346934202D003F8011B06
:10A55000FAE77047FEE700BF1FB50021039001AA8C
:10A5600044F20100ADF80410029100F003F805B0C8
:10A570005DF804FBBFF34F8F0549064BCA6802F430
:10A58000E0621343CB60BFF34F8F00BFFDE700BF16
:10A5900000ED00E00400FA0510B512F0030411D13B
:10A5A000094B1A604B1CDB009BB21A44074B1A6024
:10A5B000074B1C70074B1C70074B1880074B19800A
:10A5C000204610BD072010BD942C0020982C0020A0
:10A5D0009F2C00209E2C00209C2C0020A02C0020D2
:10A5E0002DE9F3472B4D2B888B4206460C46174628
:10A5F0004AD302A84FF0000800F8018D00F0D8FC03
:10A60000254B264A18781178CBB2254909888B4208
:10A6100038BF0133C0B238BF5FFA83F840450AD073
:10A6200092F800801378DBB2994286BF0133DBB227
:10A630000023137001E04FF6FF789DF8070000F04B
:10A64000DDFC4FF6FF73984520D0DFF85CA0DAF808
:10A6500000304FEAC80903EB090243F8387086B1AD
:10A660007CB1104B28881B68224608FB003031461D
:10A6700003F0A2F8DAF8003099440020A9F8044069
:10A6800005E00020908002E0092000E0042002B0F4
:10A69000BDE8F0879C2C00209E2C00209F2C0020E1
:10A6A000A02C0020982C0020942C0020F8B5124CEF
:10A6B000124E2546227833789A421CD010492278CF
:10A6C000237809880F48DBB2994286BF0133DBB299
:10A6D00000232B700C4B07881B680C48D2B211B2B8
:10A6E00003EBC10E006853F83130BEF8041002FBD2
:10A6F00007009847DEE7F8BD9E2C00209F2C002025
:10A70000A02C00209C2C0020942C0020982C0020B1
:10A71000494B4FF40032C3F8802003F1C04303F5E6
:10A720003C534FF48032C3F848230121C3F8082377
:10A730002F2259601046013800BF00BF00BF00BF84
:10A7400000BF00BF00BF00BF00BF00BF00BF00BF11
:10A7500000BF00BF00BF00BF00BF00BF00BF00BF01
:10A7600000BF00BF00BF00BF00BF00BF00BF00BFF1
:10A7700000BF00BF00BF00BF00BF00BF00BF00BFE1
:10A7800000BF00BF00BF00BF00BF00BF00BF00BFD1
:10A7900000BF00BF00BF00BF00BF00BF00BF00BFC1
:10A7A00000BF00BF00BF00BF00BF00BFC3D19960A2
:10A7B000224900230B601046013800BF00BF00BFD4
:10A7C00000BF00BF00BF00BF00BF00BF00BF00BF91
:10A7D00000BF00BF00BF00BF00BF00BF00BF00BF81
:10A7E00000BF00BF00BF00BF00BF00BF00BF00BF71
:10A7F00000BF00BF00BF00BF00BF00BF00BF00BF61
:10A8000000BF00BF00BF00BF00BF00BF00BF00BF50
:10A8100000BF00BF00BF00BF00BF00BF00BF00BF40
:10A8200000BF00BF00BF00BF00BF00BF00BFC3D15B
:10A83000034A1370704700BF00E100E0A42C002021
:10A84000C42C0020437882780133DBB29A4208BFDF
:10A85000002302789A421FBF0B70437803EB430238
:10A86000436814BF03EBC20000207047EFF3058379
:10A87000C3F30803BBB1103B5AB2002AABBF02F1CD
:10A88000604303F00F0303F56143094AACBF93F83B
:10A890000033D35C5B09DBB2022B06D0062B0CBF66
:10A8A000012002207047022070470020704700BF3F
:10A8B00014ED00E02DE9F0412649274B0022C1F8B4
:10A8C0004021C1F84421C1F84821C1F84C21C1F808
:10A8D0000021C1F804211B68002B38D01F48D1F893
:10A8E00004150468DFF888800C1B24F07F441546AB
:10A8F00017461A68A24215D8A41A15441A7CDE69B4
:10A900006AB1D8F800201F7432B19969586990472C
:10A9100028B1FFF721FE02E05A69986990470EB10D
:10A920003346E6E70E4B0F4A197813788B4205D170
:10A930000133DBB2022B08BF0023137012780A4BDD
:10A9400043F82250094B4FF48012C3F80021BDE8B0
:10A95000F08100BF00100140A82C0020A42C002092
:10A96000B82C0020B92C0020BC2C002000E100E015
:10A97000AC2C00202DE9F04F8F49904A90480B688D
:10A98000007887B003931378984210D00133DBB27C
:10A99000022B08BF0023137012788A4B53F8225001
:10A9A000039B2B4423F07F430B60012701E000252C
:10A9B0002F46854B1B680293844B02981C78844B6E
:10A9C0001B6801930B680593824B002193F800806C
:10A9D000049126468946013EF6B2FF2E33D033B2AB
:10A9E000019A02EBC30E12F8332003469EF801C011
:10A9F00094451846EFD002EB420CDEF804009EF8B6
:10AA000002B000EBCC0A013210F83C00D2B2934500
:10AA100008BF0022022802D00328E7D10BE0DAF8B1
:10AA200004A018469C460028E0D0824500F0A28190
:10AA30008446C069F7E7002BD8D04FF000011974A5
:10AA4000DB690121F7E7B9F1000F02D0614B83F810
:10AA50000080049B13B1584B059A1A605A4A01B101
:10AA6000106013683FB90299B3EB010E18BF4FF0A5
:10AA7000010E384623E0002108468E468C46D3B1AD
:10AA80001E68AE4204D901B11360751B1D6014E04D
:10AA9000AD1BB644DE68C3F800C0D3F81C803EB1DD
:10AAA0000399D861714421F07F4159609E60184636
:10AAB00043463946E3E701B113604FF0010E3E4BC8
:10AAC000D2F80090D3F800A0424B4FF0000C1B7856
:10AAD00002934946E046013CE4B2FF2C7ED0019B44
:10AAE0000A4603EBC40610B10346C06924E033787C
:10AAF00075789D421146EED003EB430796F802B0FD
:10AB000075680133DBB29B45337008BF307015F8B0
:10AB10003730012B05EBC70148D14B681D7C002D58
:10AB200044D18F685F60CF689F600F69DF604969BB
:10AB30009961029901B15D605968274FCAEB01051F
:10AB400025F07F45BD429F6802D83D441D6009E065
:10AB5000C1EB0A0121F07F41B9423ABF791A19606D
:10AB6000C3F800804FF00101C3F80480C3F80880E7
:10AB70001974C3F81C80DAB11D6811688D4203D8BE
:10AB80004D1B1560DA6113E0934611460F68AF4222
:10AB900005D2ED1BCF698B462FB13946F6E77F1BF7
:10ABA0000F600F4659461D60DF61CB61134601E01F
:10ABB0004FF0010C1A4696E7A42C0020B82C002078
:10ABC000B92C0020BC2C0020A82C0020B02C002088
:10ABD000B42C0020BA2C0020FEFF7F00774BBCF184
:10ABE000000F00D019601B68994503D1BEF1000F1A
:10ABF00000F0BA80002B00F0B5801F687049714BDF
:10AC0000D1F804451B68704DE21A287822F07F4283
:10AC1000033200284BD14FF48030C1F84403C1F80F
:10AC200004036A484FF40036C0F8806106600126CC
:10AC30000E602F20013800BF00BF00BF00BF00BF63
:10AC400000BF00BF00BF00BF00BF00BF00BF00BF0C
:10AC500000BF00BF00BF00BF00BF00BF00BF00BFFC
:10AC600000BF00BF00BF00BF00BF00BF00BF00BFEC
:10AC700000BF00BF00BF00BF00BF00BF00BF00BFDC
:10AC800000BF00BF00BF00BF00BF00BF00BF00BFCC
:10AC900000BF00BF00BF00BF00BF00BF00BF00BFBC
:10ACA00000BF00BF00BF00BF00BFC3D12E709742DE
:10ACB0002CBFDA199A1822F07F43C1F84035D1F839
:10ACC00004253F48121B22F07F421B1B033223F056
:10ACD0007F439A4248D9D0F80435C0F840352F2038
:10ACE000013800BF00BF00BF00BF00BF00BF00BFF2
:10ACF00000BF00BF00BF00BF00BF00BF00BF00BF5C
:10AD000000BF00BF00BF00BF00BF00BF00BF00BF4B
:10AD100000BF00BF00BF00BF00BF00BF00BF00BF3B
:10AD200000BF00BF00BF00BF00BF00BF00BF00BF2B
:10AD300000BF00BF00BF00BF00BF00BF00BF00BF1B
:10AD400000BF00BF00BF00BF00BF00BF00BF00BF0B
:10AD500000BF00BF00BFC3D11C4B4FF40032C3F88B
:10AD6000002101E0FFF7D4FC194B00221A7007B054
:10AD7000BDE8F08F604511D1D3F81CA0BAF1000FE7
:10AD800002D05346012109E00D4901238B60194689
:10AD900004915346CDF814A089468846D0F81CB0DB
:10ADA000D0F800A0CCF81CB0BBF1000F3FF41EAEF1
:10ADB000DBF800005044CBF8000017E6A82C002078
:10ADC00000100140A42C0020C42C002000E100E071
:10ADD000BA2C00202DE9F84312F0030507468846F7
:10ADE000144699463BD11F4E0AB9326037E0FFF74F
:10ADF0008FFC1D4A1D4BC2F8009003221A7034606C
:10AE000004F1180208EB4806F6001146626025704E
:10AE1000657084F8028008348C424FF0000332449D
:10AE2000F4D1134A1360134A1370134A1370134A70
:10AE30004FF48011C020C2F8801182F81403116011
:10AE400001F18041A1F56F21C1F8087582F8110365
:10AE50000B4AD1F8041511601846BDE8F8830720A5
:10AE6000BDE8F883B42C0020AC2C0020B02C0020CE
:10AE7000A82C0020B82C0020B92C002000E100E014
:10AE8000A42C0020074B1B684BB132B128B10368DA
:10AE9000187C20B959745A61704707207047082000
:10AEA000704700BFB42C00202DE9F3411B4B1C68F8
:10AEB00005460E4617466CB360B3042928D943698A
:10AEC00043B3437C012B0CBF88464FF00008FFF7CB
:10AED000CDFC04EBC0040DF107012046FFF7B2FCE6
:10AEE000A0B1012303700E4B4560D3F80435836095
:10AEF0009DF80730C660C0F8108047616370094B49
:10AF00004FF48012C3F80021002004E0042002E086
:10AF1000072000E0082002B0BDE8F081B42C00203A
:10AF20000010014000E100E073B5124B1D680646B9
:10AF3000EDB1E0B14369D3B100240474FFF796FC8E
:10AF400005EBC0050DF107012846FFF77BFC60B15A
:10AF5000022303709DF8073046606B70064B4FF478
:10AF60008012C3F80021204602E0042000E00820FF
:10AF700002B070BDB42C002000E100E0082910B53B
:10AF8000044602D00020FFF7E7FA23686068BDE8B6
:10AF90001040184707B5054A8DE8030008216846A8
:10AFA000FFF71EFB03B05DF804FB00BF7DAF070099
:10AFB00070B5EFF3108572B60D4A9468012394B909
:10AFC00093600C4B0C49D3F88060314011600A4902
:10AFD000C3F88010D3F8841051604FF0FF32C3F8EB
:10AFE0008420047000E0037005B962B670BD00BF34
:10AFF0003438002000E100E0FC06FFBC10B5084B2F
:10B000009A685AB150B9EFF3108272B605491C68BC
:10B010000C605C684C60986002B962B610BD00BFFD
:10B020003438002000E100E048DF704711DF70474E
:10B0300013DF7047064B1878012803D1012904BF9C
:10B040000221197012B11046FFF786BA704700BF8F
:10B05000E42C002010B5064CFFF7E6FF08B1FFF71F
:10B060007BFAFFF723FB2378023B022BF4D810BDB9
:10B07000E42C002008B51C21084802F029F808B18A
:10B08000FFF76AFA00231C220549044802F010F871
:10B0900018B1BDE80840FFF75FBA08BDE82C0020F2
:10B0A000C82C002007B50368013301D1002014E04B
:10B0B00001A800F03DF9019B1A78012AF6D15888C1
:10B0C00030B1996843F208030022186800F054F97F
:10B0D000019B5B881B1A5842584103B05DF804FB82
:10B0E00084B02DE9F34108AC84E80F009DF82040BE
:10B0F000BDF82280099F0A9E0B9D01A800F018F957
:10B1000044B9354B0122FF21A3F802809D601A70DB
:10B1100019713EE0012C13D12F4BBA192A449A60C1
:10B12000A5221A70FF221A710C9AA3F80280DF6020
:10B130001E615D619A61294B1C70FFF79BFF45E022
:10B14000032C0DD1019A244B117819705188926803
:10B150009A60AA2259801A71DF601E615D6117E052
:10B16000022C19D1019A1C4B1178A52905D1002276
:10B170005A809A60FF221A7004E019705188926810
:10B1800059809A60FF221A710022DA601A615A61AE
:10B190000122124B1A70D0E7052C06D100F0C0FD39
:10B1A00008B1FFF7D9F903220EE0042C09D10A4BAC
:10B1B00000229A605A80FF221A70019A12791A713D
:10B1C000BBE7062C02D10422044B1A7002B0BDE882
:10B1D000F04104B0704700BFC82C0020E42C0020D0
:10B1E0001FB5002302930393074B019301F026FF41
:10B1F00030B906494FF4FE2301A84B6001F044FF2B
:10B2000005B05DF804FB00BF35B00700E82C002056
:10B2100010B500F01FFA28B900F05EFD0446FFF7F4
:10B2200019FF204610BD000010B5FFF7FFFE08B162
:10B23000FFF792F90D4A10680023012404FA03F184
:10B24000014203F1010318BFC2F88010202BF5D191
:10B2500043F208031868FFF7EBFE1C4608B1FFF73E
:10B260007BF92068BDE8104000F068B800E100E01C
:10B2700007B501A800F05CF8019B1A78A52A05D053
:10B280001879A0F1AA035842584100E0012003B008
:10B290005DF804FB10B500F0F7FB40B1642001F04D
:10B2A00038FA00F065FB38B1FFF756F904E000F01A
:10B2B000C5FB0028F2D110BD00F0E6FB08B1FFF796
:10B2C0004BF900F098FB044608B1FFF745F920461A
:10B2D00010BD10B588B003AC142200212046FFF742
:10B2E00031F902238DF80C300023009394E80F000D
:10B2F000FFF7F6FEFFF7AEFE002008B010BD13B555
:10B30000044601A800F014F8019B1A7822705A88AC
:10B3100062809A68A2601A792271DA68E2601A691A
:10B3200022615A6962619B69A36102B010BD00008D
:10B33000014B0360704700BF00F00700F0B5034603
:10B34000186880F308885868FF2464B2EFF3058515
:10B35000002D01D1A64600472546064621273FBAC3
:10B36000F0B40024002500260027F0B4F92040B2F4
:10B37000004700BFF0BD00BF0AB1138801E04FF6DF
:10B38000FF730144884210D010F8012B5BBA9BB2C6
:10B390005340C3F30312534083EA03331AB25301F9
:10B3A00003F4FF5353409BB2ECE71846704718DF95
:10B3B000704770470129F8B50D4614461F4602D064
:10B3C00003290CD01AE0114B1B78052B16D1104B1A
:10B3D0001B689BB13A462146042098470EE00B4E6D
:10B3E0003378022B0AD10B4B5B689847084B3570BA
:10B3F0001E681EB13A4621462846B04724B1204671
:10B40000BDE8F840FFF7A8B8F8BD00BFF82C002051
:10B41000F02C0020402D002000B5084B89B00122FF
:10B420001A7005238DF80C30079B009303AB0FCBEC
:10B43000FFF756FE09B05DF804FB00BF042D0020A5
:10B4400000B589B003238DF80C300A4B1B88ADF88A
:10B450000E30094B5A6804929A68DB680693079B82
:10B460000093059203AB0FCBFFF73AFE002009B023
:10B470005DF804FBF62C0020302D002000B589B0CB
:10B4800001238DF80C300B4B1B88ADF80E3043F2C6
:10B4900008031A68084B596804919968DB68069399
:10B4A0000591009203AB0FCBFFF71AFE002009B005
:10B4B0005DF804FBF62C0020302D002010B588B07C
:10B4C00003AC142200212046FFF73CF804238DF83A
:10B4D0000C300023009394E80F00FFF701FE08B042
:10B4E00010BD000008B50C4B0C4818600C4B022234
:10B4F0001A7043F208031968494221F4FF5121F000
:10B500001F0101F5F421490801F0E2FD18B1BDE881
:10B510000840FFF721B808BDCC2D0020082D0020E1
:10B52000F82C002008B5084B08481860084B022288
:10B530001A70084B196801F0CBFD18B1BDE808403E
:10B54000FFF70AB808BD00BFCC2D0020FC2C00205E
:10B55000F82C0020D42D002030B5154C1548E1689A
:10B5600089B001F0B5FD08B1FEF7F6FF1249E268B7
:10B5700049681048002301F09BFD0546A0B903ACC3
:10B58000014614222046FEF7DDFF0C4B8DF80C50CF
:10B590001B88ADF80E30064BDB680693079B0093C3
:10B5A00094E80F00FFF79CFD284609B030BD00BFAE
:10B5B000302D0020FC2C0020082D0020F62C00202F
:10B5C00010B50C4B1B7883B90B48FFF7ADFC08B1E5
:10B5D000FEF7C2FF00224FF470110748FFF764FC2A
:10B5E000044620B1FEF7B8FF01E0082010BD204658
:10B5F00010BD00BF042D0020102D00207FB5054692
:10B600000C469608032168468DE8220002940396B2
:10B61000FFF7CDFED8B1B4F5805F11D8012368469D
:10B620008DE8280002940396FFF7C1FE78B9032342
:10B6300068468DE8280002940396FFF7B8FE06E0FE
:10B640001A46E11AE81AFFF7D9FF0028E6D004B03D
:10B6500070BD00007FB51F4B01931F4B1F4E204D47
:10B6600000241C701F4B0294314601A81C800394D7
:10B6700001F00AFD034608B12C7029E043F20802EC
:10B68000194C1168716096E8030084E803001168A2
:10B6900016484A4222F4FF5222F01F0202F5F42219
:10B6A00001EB520262601946114AFFF7EBFB08B149
:10B6B000FEF752FF00224FF470110E48FFF7F4FB23
:10B6C00008B1FEF749FF0C4B0020186001232B70D6
:10B6D00004B070BDB5B30700F42C0020FC2C002092
:10B6E000F82C0020F62C0020082D0020ECD70700B5
:10B6F00019B40700102D0020D02D0020014B186038
:10B70000704700BFF02C002038B54368294C0FCBA0
:10B7100084E80F0021784B0701D58D0742D162687C
:10B72000244B90073ED1986885073BD1DB689C0786
:10B7300038D10244204D1A44B0F5A04F2A6033D8C6
:10B7400043F2080311F0010F1B680AD0C3F5F4237C
:10B750009A4229D8194B1A4A1A601A4A5A601A4A48
:10B7600012E05B4223F4FF5323F01F0303F5F4239D
:10B77000B2EB530F18D8114B144A1A60144A5A608E
:10B780008A074CBF134A144A9A60144B1B78012B4A
:10B790000CD1FFF715FF044650B9084B28681B6809
:10B7A000984705E0062038BD0C2038BD082038BD7C
:10B7B000204638BD302D0020D42D0020402D002003
:10B7C00025B50700BDB407007DB40700E5B4070048
:10B7D000B3B3070041B4070059B50700F82C0020A7
:10B7E000F8B5064640B383689B0727D1154B1B78F5
:10B7F000052B25D1144C4268144F236895003A68F4
:10B800002B44934204D94FF0FF3323600C20F8BD42
:10B81000FFF7D6FEA8B90E482368B16800682A462B
:10B8200001F046FC68B920682A1838682260824214
:10B8300014BF09200020F8BD0E20F8BD1020F8BD6F
:10B840000820F8BDF82C0020D02D0020D42D002099
:10B85000CC2D002070B50B4B1C687CB90A4E337898
:10B86000042B0BD1094D0A48297800F039F910B999
:10B870000523337003E02C70044600E008242046C2
:10B8800070BD00BFD02D0020F82C0020F42C00202B
:10B890004C2D0020F8B5144B1A78032A074602D025
:10B8A000042A02D018E004221A70104B1D689DB9BA
:10B8B000FFF786FE90B90E4E7C683378A4001A1903
:10B8C000802A0DD80B48B9682246184401F074FF4D
:10B8D00033781C44347004E0082502E0054600E09B
:10B8E00009252846F8BD00BFF82C0020D02D0020E7
:10B8F000F42C00204C2D002038B50D4C2378052B5E
:10B9000014D10C4B0C4D1A682B689A420ED10623A9
:10B910002370FFF755FE50B9084B29681B6858681B
:10B9200000F020F918B90723237038BD082038BD6E
:10B93000F82C0020D02D0020D42D0020CC2D00206C
:10B9400010B5084B1B78072B0AD10748FFF7ECFA14
:10B9500008B1FEF701FE054BBDE810409B68184793
:10B96000082010BDF82C0020102D0020402D0020B4
:10B9700010B58CB005A8FFF7C2FC089A002A37D092
:10B980000B9C02F58053A34226D943F20801A4F58B
:10B99000805309688A424FEA530307D85800121AA5
:10B9A00000F580512044FFF729FE20E003F5805088
:10B9B00001210290039001A801910491FFF7F7FC87
:10B9C000A8B94FF480500290039001A8019104910E
:10B9D000FFF7EDFC58B9E1E70123019392084FF41A
:10B9E000805301A8029403930492FFF7E0FC0246FF
:10B9F00010460CB010BD00B58DB005A8FFF77FFC58
:10BA00000998C0B1089A62B943F208031A68534210
:10BA100023F4FF5323F01F0303F5F42302EB530336
:10BA200001E00B9B134480080022039001A80192BF
:10BA30000293FFF7BCFC0DB05DF804FB00B58DB0C0
:10BA400005A8FFF75CFC0998D8B1089A62B943F2DF
:10BA500008031A68534223F4FF5323F01F0303F52E
:10BA6000F42302EB530301E00B9B134403228008F1
:10BA7000019204904FF4F42201A802920393FFF77D
:10BA800096FC0DB05DF804FB30B58DB005A8FFF74E
:10BA900036FC089808B30B9C00F58053A3420FD9DD
:10BAA00043F208031B68984216D8A4F580535B083C
:10BAB0005D00421B05F580516019FFF79FFD0CE00A
:10BAC00003238008019304904FF4805301A802934C
:10BAD0000394FFF76CFC00E00E200DB030BD0000B9
:10BAE0000B2970B5044633D9038900EB43030A33AD
:10BAF000C21A0A44D2B2012A2AD901448B4227D859
:10BB00001946164801F058FE154B1A884FF6FF717A
:10BB10008A4202D0218891421CD15B884FF6FF7285
:10BB2000934202D062889A4214D134F8081F00234D
:10BB30004FF6FE7043F20C058B420BD234F8022F05
:10BB4000824209D02E88B24203F10103F4D103E00E
:10BB5000092070BD0B2070BD002070BDD82D0020C5
:10BB60008010001008B50022FFF706FC044A517847
:10BB7000137843EA0123984214BF0B20002008BD2C
:10BB8000D82D0020F7B500230DF1020101A8ADF872
:10BB90000230019300F00CFD20BB019A16785EB3D1
:10BBA000184B93F83010032928D00C2707FB00F519
:10BBB000144C595999B994F8303066510133DBB2BD
:10BBC00084F83030BDF8023060199B08013B043224
:10BBD000436082600C4A0846FEF702FD02E0013035
:10BBE0000428E3D1019B5BB150B1184600F0FCFC86
:10BBF00030B1FEF7B1FC03E00720F3E70420F1E7E2
:10BC000003B0F0BDE42D002051BC070011B108467F
:10BC1000FEF7A2BC7047000010B50C230B4A43434B
:10BC2000D418D15881B192F83010A0680139C9B246
:10BC300082F830100021D150A1606160043800F01A
:10BC4000D3FC08B1FEF788FC002010BDE42D0020D5
:10BC500070B5204E96F83030002B39D01D4C0025A1
:10BC600023687BB3013B042B26D8DFE803F01025C3
:10BC700007031C002046FFF7B3FD1DE0A3686360C7
:10BC80002046FFF741FDB8B1FEF766FC14E0204600
:10BC9000FFF700FEFFF7DEFD08B1FEF75DFC0120B7
:10BCA00001F0B4FA08E0FFF727FEFFF749FE002095
:10BCB000BDE8704001F0AABAE8B2FFF7ADFF08B1E5
:10BCC000FEF74AFC0135042D04F10C04C8D1C1E78C
:10BCD00070BD00BFE42D00200E4A08B5002382F895
:10BCE00030301946D150D0180C33302B8160416070
:10BCF000F8D10948FFF702FD00F0F4FB08B1FEF7A8
:10BD00002BFC064800F0DAFB08B1FEF725FC00200A
:10BD100008BD00BFE42D00200DBC070085BB070057
:10BD200008B50020FFF778FF0120FFF775FF02201C
:10BD3000FFF772FF0320FFF76FFFBDE8084000F038
:10BD400017BC0000064B074A00201870064B1A600B
:10BD500002225A609860D8601861586198617047F3
:10BD6000EC320020182E0020D03200200020704736
:10BD700030B5F1B1124B5C6800220A60DCB1B0F55D
:10BD8000167F1AD8D8681D680130013CD860186940
:10BD90005C604FF4177404FB00540C609C69012133
:10BDA00081400130214300F0010018619961104683
:10BDB00030BD0E2030BD042030BD0C2030BD00BF92
:10BDC000D0320020F0B51B4B9A6882B35D691E68C3
:10BDD000AC1A04F0010421464FF4177707FB016EFB
:10BDE00070450FD19D69012088406840986100200E
:10BDF0005E68D3F818E04FF0010C0025164481EA84
:10BE00000C0109E081F001018D42E7D11020EFE73C
:10BE10004AB1013A0C4601250CFA04F414EA0E0F5B
:10BE2000A6EB0207F4D01DB19A605F60F0BD04205C
:10BE3000F0BD00BFD032002006490B69013B03F082
:10BE400001020B684FF4177101FB0233C3F858026B
:10BE500000207047D032002030B5C0B1B9B10E4BD0
:10BE6000DA68B2B1013ADA609A681D6801329A6004
:10BE70005A694FF4177404FB02540132046002F053
:10BE80000102D4F858025A610860002030BD0E202B
:10BE900030BD042030BD00BFD032002030B50B498A
:10BEA000086885B078B10A4B1C6864B1094A0390F0
:10BEB000002315688DF804300B601360029504AB05
:10BEC00013E90700A04705B030BD00BF04330020D0
:10BED000FC3200200C330020DC2810B506D0DD2811
:10BEE0000CD0C02813D1FFF7D9FF17E00D4A0E4B35
:10BEF00019681368581C1060C02206E0094A0A4BF2
:10BF000019681368581C1060DB22CA5406E0064BFF
:10BF1000044A196813685C1CC8541460034B044A33
:10BF20001A6010BD043300200C330020602C002068
:10BF300065BF0700C02802BF014B024A1A60704764
:10BF4000602C002065BF070008B5DB2000F0CAFBAD
:10BF500010B9024B024A1A6008BD00BF642C0020D1
:10BF6000FDC00700C02810B405D0DB2807D1094B5D
:10BF7000094A1A600AE05DF8044BFFF78FBF074BD0
:10BF8000074A196813685C1CC85414605DF8044BB8
:10BF9000704700BF602C0020D9BE07000C33002082
:10BFA0000433002010B5064A064C12682368D05CA2
:10BFB00000F098FB10B923680133236010BD00BF67
:10BFC00008330020F032002008B5C02000F08AFBC2
:10BFD00028B9034B1B6813B9024B034A1A6008BD0A
:10BFE000F0320020642C0020A5BF07007FB51C4C58
:10BFF0001C4E1D4D226833689A4216D21B4B226894
:10C000001B689A5CC02A03D022689B5CDB2B05D19D
:10C01000174B2A689A4204BF164B2B602B6898472F
:10C0200004281AD01128E5D117E00F4B124A1A60E4
:10C03000FFF7CAFF88B9114B01221A70104B1B6819
:10C040005BB18DF80420094A12680292044A126812
:10C05000039204AA12E90700984704B070BD00BF1C
:10C06000F0320020F4320020642C0020083300203D
:10C07000A5BF070049BF0700C9BF07000033002064
:10C08000FC3200201FB50378032B044605D1154B65
:10C090001B78022B01D1FFF7A9FF2378042B1ED1B7
:10C0A000114B1A682AB1114B1968114B1B68994240
:10C0B0000ED3104B1B6893B102920C4A02211268F6
:10C0C00003928DF8041004AA12E90700984706E0CD
:10C0D000094B20791B6804B0BDE81040184704B034
:10C0E00010BD00BF003300200C33002004330020BB
:10C0F000F8320020FC320020602C002010B50C4AE1
:10C100000C4C12682368D35CC02B03D0DB2B0CD102
:10C11000DD2000E0DC2000F0E5FA38B92368064AAB
:10C1200001332360054B1A6010BD042010BD00BF11
:10C1300008330020F0320020A5BF0700642C002047
:10C14000014B186000207047FC3200207FB50B4D7A
:10C150002E787EB90A4B93E8070001AC84E807000B
:10C160000623084A3146204600F072FA18B9012326
:10C170002B7000E0002004B070BD00BF0033002031
:10C18000F0D7070085C00700024B00221A7000F0AC
:10C19000BBBA00BF0033002010B5C0B10D4B1A78F8
:10C1A000012A04D0022A0CBF0420082010BD0A4A2C
:10C1B00000241460094A1160094A106002221A70B2
:10C1C000084B094A1A60FFF711FF204610BD1020E6
:10C1D00010BD00BF00330020F0320020F4320020F8
:10C1E00008330020642C0020C9BF0700054B064A15
:10C1F0001860064B1960064B00201860054B1A604A
:10C20000704700BF0C33002035BF0700F832002014
:10C2100004330020602C0020064B07481B68DB001D
:10C22000DBB20022037004215B4242708270C37053
:10C23000FFF7B2BF283300205833002070B52D4CD3
:10C240002D4E024625462378012B14D002D3022B13
:10C2500020D070BD002A4BD12848FEF765FE08B1FA
:10C26000FEF77AF9264B1B68002B41D0254ABDE822
:10C27000704010781847012A3AD13168224B0631B4
:10C280001868FFF789FF08B1FEF766F902232B70E3
:10C290000022D8E7022A16D0032A01D042BB06E0CA
:10C2A0001A4A1368013303F0070313601DE0184BAB
:10C2B00012481A6041F67F21FEF7F6FDC0B1BDE8D5
:10C2C0007040FEF749B9124A1368052B0AD00133B2
:10C2D0001360094B19680C4B06311868BDE87040B3
:10C2E000FFF75ABF074B01221A7000232370CFE7D4
:10C2F00070BD00BF1C3300202C33002030330020E1
:10C3000020330020253300206033002054330020E8
:10C3100018330020F0B585B004AB03E907009DF8A1
:10C32000040003285FD8DFE800F008025A5D01200E
:10C3300005B0BDE8F040FFF781BF039E564D032EC8
:10C3400039D9029C637813F00F021DD00E2A32D126
:10C35000042E7ED0227850067BD5110679D5134461
:10C36000A278E17813440B4413F0FF0271D1B71E99
:10C3700039462046FFF700F8E3195A78E35D43EAAF
:10C380000223984265D133E02178A2780B4413440C
:10C39000E278134413F0FF030DD1404A12680132D2
:10C3A000C1F3C20102F00702914204D13C4A0320CA
:10C3B0001370FFF743FF2C68374E1CB14FF4167112
:10C3C000204649E031464FF41670FFF7D1FC0028B3
:10C3D00058D004285AD02046FEF7BEF856E0052172
:10C3E000304839E0032005B0BDE8F040FEF7B4B8AE
:10C3F0002D4922780B6802F00702D8B282421BD185
:10C40000013303F007030B60FFF706FF274B012200
:10C4100030461A70FFF710FD08B1FEF79DF81E4C6C
:10C420004FF416702146FFF7A3FCC8B1042826D0AC
:10C430000020FEF791F822E04FF416712868FFF70C
:10C44000D5FE08B1FEF788F805B0BDE8F040FFF76B
:10C45000E3BE28684FF41671FFF7C8FEC8B1C2E703
:10C4600020684FF41671FFF7C1FE08B1FEF774F8AB
:10C470000F4B1B686BB14FF00000984709E009486B
:10C480000521F0E730684FF41671E5E7054805210E
:10C49000E2E705B0F0BD00BF5C330020543300205C
:10C4A00025330020103300202833002024330020BF
:10C4B000503300200220FFF7C1BE0000074B10B52B
:10C4C000044618600648FFF73BFE08B1FEF744F843
:10C4D000002C0CBF0E20002010BD00BF50330020E8
:10C4E00015C30700174A1848002310B51360174AF0
:10C4F0001360174A1360174A1370174A1370174BCB
:10C50000174A01211960174B1960174B1970FEF774
:10C51000B9FC08B1032010BDFFF714FC88B9FFF780
:10C5200015FE70B9114C4FF416702146FFF720FC30
:10C530000028EFD120684FF41671BDE81040FFF7D6
:10C5400055BE10BD60330020FCD707002C330020FF
:10C5500018330020243300201C330020283300200F
:10C56000B5C4070054330020253300205C3300207D
:10C570000C4A08B5002313600B4A1360FFF7F6FB63
:10C5800008B1FDF7E9FFFFF7FFFD08B1FDF7E4FF94
:10C590000648FEF7C9FC042802D10020FDF7DCFFA5
:10C5A000002008BD2033002050330020303300200D
:10C5B00037B50D46044690B189B10A4B197800226F
:10C5C000019251B101A91A70FFF746FC019B063B8D
:10C5D0002B8023680433236002E0042000E00E2057
:10C5E00003B030BD243300200438FFF7EBBB00005C
:10C5F00013B50478012C0DD104238DF80030436865
:10C6000010481B788DF80430214600F09FFA0E4B3D
:10C610001C7009E0022C0BD1C3680A488DF8004059
:10C620000121019300F092FA084B68461B6806E06E
:10C6300034B902A8032300F8083D044B1B6898474F
:10C6400002B010BD6C3300206D3300206833002031
:10C65000F0B51F4D064617469E460FCD89B06C4675
:10C660000FC495E80F0084E80F00B3680693337990
:10C670008DF81CE01A1C18BF01228DF81420727965
:10C68000002A14BF0E2200228DF81520F2780292A3
:10C69000B278039232780192727800920D4A176054
:10C6A0000D4A0021022B11700ED00C49684600F093
:10C6B000F7F850B99DF81D300BB900F0F7FA0121D9
:10C6C000074800F043FA00E0062009B0F0BD00BFC3
:10C6D00000D80700683300206D330020F1C5070043
:10C6E0006C33002008B5074B01211870184600F084
:10C6F000BFF9112804D0002814BF0320002008BD72
:10C70000042008BD6433002008B500F05DF9002066
:10C7100008BD82B00190019B002B41D0019B013BE1
:10C72000019340F2E730013800BF00BF00BF00BFF7
:10C7300000BF00BF00BF00BF00BF00BF00BF00BF01
:10C7400000BF00BF00BF00BF00BF00BF00BF00BFF1
:10C7500000BF00BF00BF00BF00BF00BF00BF00BFE1
:10C7600000BF00BF00BF00BF00BF00BF00BF00BFD1
:10C7700000BF00BF00BF00BF00BF00BF00BF00BFC1
:10C7800000BF00BF00BF00BF00BF00BF00BF00BFB1
:10C7900000BF00BF00BF00BF00BF00BFC3D1BAE7EA
:10C7A00002B0704700284FEA4111BFBF00F00F02EE
:10C7B0000E4BC9B29954A8BF00F1604300F01F02AC
:10C7C0004FEA5010A8BF03F561434FEA8000A8BFAD
:10C7D000C9B200F16040A8BF83F8001300F56140C2
:10C7E00001239340C0F880310360704714ED00E0EE
:10C7F000074B00221A60074A938A91689BB2C95C72
:10C80000938A01339BB29382034BC3F81C15704784
:10C810001C21004070330020002000401FB5012380
:10C820008DF80030054B8DF808000191684693E8BB
:10C830000600904705B05DF804FB00BF7033002090
:10C840001FB5084B8DF808009968019100228DF8FA
:10C8500000209A75684693E80600904705B05DF899
:10C8600004FB00BF703300200A4B0B49D87D0B4AF4
:10C8700018B90860D2F81835704700200860597E52
:10C88000D2F81805DA6850545A7E0132D2B25A767C
:10C89000704700BF70330020082100400020004096
:10C8A0002DE9F041404C94F81BC08846BCF1000FC4
:10C8B00077D13E4B002808BF184601230268457F08
:10C8C000257793404FF0A0420327C2F8083503684C
:10C8D00003F5E07342F82370436803F5E07342F810
:10C8E00023C0334B8669C3F8246590F815E0067DB4
:10C8F0004EEA0606C3F86C6590E84200C3F80C15D2
:10C90000C3F81465067D3DB1012E1BD1816801F588
:10C91000E07E42F82EC006E0012E13D1816801F5B9
:10C92000E07E42F82E50C1688E40C2F80865C668A5
:10C9300006F5E07642F82670C6688268C3F8086596
:10C94000C3F810250369C4F804802360B8F1000F10
:10C9500016D0017F174A55B11748002303600361C1
:10C9600043611360124B154AC3F8042305E0144BCE
:10C970001D601560134AC3F8E8210220FFF712FF7B
:10C98000227F0B4B0AB1082200E00422C3F80025E5
:10C9900000200123E0752076A075E376A076BDE83F
:10C9A000F0810820BDE8F0817033002020D8070016
:10C9B00000200040442100401021004010030200EC
:10C9C0001C2100408000020070B5244A244B117FD6
:10C9D00019B10020C3F8000501E0C3F80015536841
:10C9E00053B11F4B09B11F4800E01F48C3F80803AB
:10C9F0001E4B0420C3F88000194BD3F80C55D3F814
:10CA00001445D3F80815D3F810054FF0FF36C3F8D6
:10CA10000C6504F5E074C3F8146505F5E075C3F81A
:10CA20000865C3F810654FF0A043022643F825605F
:10CA300043F82460441C1CBF00F5E07043F82060FC
:10CA40004B1C1FBF4FF0A04301F5E071022043F8DB
:10CA500021000023D376536070BD00BF70330020E7
:10CA600000200040100302008402020000E100E008
:10CA7000F8B52F4C237F23B1020C1204B2F1005FF2
:10CA800052D1A67D2A4D002E50D1A975A860AE8244
:10CA90002849D3B1284B294A1E601660284EAF7D25
:10CAA000C6F844050120C6F848750860696819B1E0
:10CAB0000020F8BD002933D1186811680028F9D08A
:10CAC000002914BF0F2000202BE01E480360012323
:10CAD0000B60FFF78DFE6B68002BE9D1A27DA38A66
:10CAE0009BB293420ED2036823B9A38A9BB2B3F5DB
:10CAF000807FF8D1A38A9BB2B3F5807FEFD0FFF798
:10CB000077FEEBE70A4B9B8A9BB2B3F5807F07D099
:10CB10000368002BFCD00C4B01221A60002000E0BF
:10CB20000F200023A375F8BD1020F8BD1120F8BD1B
:10CB30007033002008200040202100405821004090
:10CB4000002000401C2100400C2000402DE9F04155
:10CB50004F4D2B7F23B1020C1204B2F1005F1CD1A8
:10CB60006E6846B14B4A13B14FF4047401E04FF4C0
:10CB70000174C2F80843EC7D454A84B1147E002C50
:10CB80004FD046B1434A13B14FF4047301E04FF460
:10CB90000173C2F80433112477E0102475E0D175D5
:10CBA000D06054761476002B40D1AA7E3AB933B9BE
:10CBB000394A136042F81C3C364B01221A606A68FD
:10CBC00042BB364B344FDFF8E0801A601E463B68AC
:10CBD000D8F8002034681AB95CB9002BF7D008E007
:10CBE0003BB934B9FFF740FE6B7EEA7D9A42EED83E
:10CBF00023460022EA750BB1032446E00CB10F2452
:10CC000043E0234B9A7E01230AB1224A00E0244AE2
:10CC100013603AE04FF401721E4B0024C3F8042362
:10CC200033E01061117613BB0123BEE71D4B1C607E
:10CC30005C63C3F82404C3F82814A3F588730122A5
:10CC40001A606B6883B9174A1449134816680C6850
:10CC5000036816B90CB9002BF8D00022EA75002B36
:10CC6000CAD1002CCBD110E04FF40472D4E70D4BA5
:10CC70001C605C63C3F82404C3F82814D3F8F020C4
:10CC800042F02002C3F8F020DBE72046BDE8F08147
:10CC90007033002000200040242100404421004047
:10CCA000042000401021004008210040074B1A7F5B
:10CCB00052B99A7E42B906490A6041F81C2CA1F586
:10CCC000927101220A609A76704700BF703300208B
:10CCD00024210040F0B56B4C6B4D217F85B00029BD
:10CCE00058D06A490A68BAB1002302220B608DF855
:10CCF0000020674AD2F88014C2F880140391D2F859
:10CD00003C258DF80820E268E3752376019294E8CB
:10CD10000A00684698471CE05E4B1968C9B15C4E32
:10CD20001A60D6F83C35E07DDBB2984211D1237E03
:10CD30005BB1D6F80072E16827F02007C6F80072F0
:10CD4000E3752369E360227601E0E168E375FFF7AC
:10CD500065FD2B686BB14C4B00221A60E17D494B9D
:10CD600039B1DA754A4AD968D2F83C05C0B2FFF742
:10CD700055FD494B1A68002A00F0828000221A6093
:10CD8000A37D002B7CD0424BD3F84C05C0B2FFF7FB
:10CD900057FD75E03E4BD3F8042312F4007F18468C
:10CDA00022D03A4A1668FEB111604FF40172C3F8FE
:10CDB0000823A37E13B9394B01221A60344A022397
:10CDC0008DF80030D2F88034C2F880340393E37DCC
:10CDD0008DF80830E36801930023E37523766846F5
:10CDE00094E80A00984728E0D0F804335B0724D57C
:10CDF0002B4B1B680BB3FFF737FD627EE17D214BA8
:10CE000091421AD11A7E42B1DA751A69D968DA608C
:10CE10000022587E1A765A760DE09B7E13B91F4B7E
:10CE200001221A601A4B4FF40172C3F80823607E86
:10CE3000E1680023E375FFF7F1FC1A4A136863B158
:10CE4000A38AA07D9BB2984202D9FFF7D1FC04E0EF
:10CE50000023136008B1FFF7F3FC2B6883B10A4B82
:10CE600000221A60A37E13B1094B01221A60E27DF1
:10CE7000044B2AB10022587ED968DA75FFF7CEFC40
:10CE800005B0F0BD70330020442100402421004053
:10CE900000200040102100402021004004200040DC
:10CEA000082100401C21004029DF704728DF70471F
:10CEB00037B50B460C465A6814F80C1BDD68009217
:10CEC000044A5B6952F8255002462046A84703B041
:10CED00030BD00BF8434002038B5174C23781822A9
:10CEE00002FB03431A795869012A0DD0032A21D184
:10CEF0004FF080531B699BB2B0FBF3F00F4B1B68E4
:10CF00001844FFF7D3FF11E00C4A996915689A6835
:10CF1000DB682D03521BB2F5805F18442944284476
:10CF200034BF92084FF48062FFF7BEFF18B90123A7
:10CF3000A37038BD0F2038BD9033002094340020FA
:10CF400070B5134D6E780A2E1FD02C783444E4B29D
:10CF5000092C84BF0A3CE4B2182606FB0454A261E3
:10CF6000207103C9A360049BE360AB7804F1100255
:10CF700082E803000BB1002003E0FFF7ADFF1128AA
:10CF8000F9D06B7801336B7070BD042070BD00BFA9
:10CF90009033002038B5274B9A781D46002A47D099
:10CFA000002402289C7002D0032831D038BD1B78A1
:10CFB0002149182000FB03500A6880680132B0EB59
:10CFC000023F0A6019D86A780C60013A6A705A1CEC
:10CFD000D2B2182404FB0354092A88BFA3F1090222
:10CFE000211D00202A70FFF763FF00230322237115
:10CFF000A36022616361A361E3606B780D4CBBB1F8
:10D00000A378ABB9FFF768FF90B1112807D138BDFD
:10D010001A78182101FB023104310D2004E0237835
:10D02000182101FB03410431BDE83840FFF740BF40
:10D0300038BD00BF90330020943400200E4B0022F6
:10D0400010B51A600D4B03241A705A709A7003F1D0
:10D05000F0011A719A601C615A619A61DA601833A2
:10D060008B424FF00000F4D1054B1860054B18605F
:10D070005860986010BD00BF9434002090330020A9
:10D080009034002084340020074A1368032B1FBF0C
:10D090000B60591C1160054A1DBF016842F823103E
:10D0A00000200420704700BF90340020843400200A
:10D0B00013B5CC180C43A40707D1009313460A46B6
:10D0C00001460120FFF73CFF00E0102002B010BD38
:10D0D00007B500220B46009201460320FFF730FF00
:10D0E00003B05DF804FB13DF704718DF70470000E2
:10D0F00010B58AB004461022002101A8FDF722FADB
:10D10000022301931A4B186800902CB101A8FFF775
:10D11000ECFF08B1FDF720FA4FF4F420FFF7E3FF2E
:10D1200008B1FDF719FA134B13494822684600F07D
:10D1300097FA08B1FDF710FA012105AA084600F098
:10D14000E5FA08B1FDF708FA9DF8203005A843F08C
:10D1500001038DF8203000F0F1FA08B1FDF7FCF979
:10D16000064800F0B7FA08B1FDF7F6F90AB010BDAD
:10D1700040D807006DD707001036002081D1070086
:10D18000FFF708BF08B50A4A14210820FDF704FA82
:10D1900008B1FDF7E1F9074A07480121FDF772FEE2
:10D1A00000224FF480510548BDE80840FDF77CBEE1
:10D1B000B8340020C1D1070044D8070098340020BB
:10D1C0000E4A1368013313600D4A12780AB9DB075F
:10D1D00013D44FF0A042D2F80435D94301F4003102
:10D1E00003F40033C2F80815C2F80C35054BD3F828
:10D1F000002412B1044AC3F8002670470C36002000
:10D2000008360020000001403546526E014B187070
:10D21000704700BF0836002038B54FF08043D3F880
:10D220001C45B12C04BF0022C3F81C254FF0A043BD
:10D230004FF00302C3F84427C3F84C274FF40032E1
:10D24000C3F80C254FF40022C3F80C25374B1B689C
:10D250000CBF01250025B3F5F42F02D00020FDF707
:10D260007BF94FF080531B69B3F5805F02D000203B
:10D27000FDF772F92E4B2F4A05210020FDF7AAFD7C
:10D2800008B1FDF769F94FF0A0432B4AC3F85027C6
:10D29000FDF7A6FFFDF7ECFF90B1FDF7FBFF08B12E
:10D2A000FDF75AF9B4F1B10018BF0120FFF720FFD4
:10D2B000FFF768FFFEF70DF850B1FDF74DF907E0F5
:10D2C000B4F1B10018BF0120FFF712FFFFF75AFFBA
:10D2D0004FF0A043D3F81035DB0200D52DB1FDF798
:10D2E00097FF48B1FDF738F906E043F208031868E4
:10D2F000FDF7D8FE0028F2D043F208042068FDF7BD
:10D30000D1FE28B1FDF7B4FF10B92068FDF78CFFFE
:10D31000BFF34F8F09490A4BCA6802F4E062134316
:10D32000CB60BFF34F8F00BFFDE700BF14100010AC
:10D3300095AF0700583600200C00030000ED00E018
:10D340000400FA050C4B1B78062B10D10B4B1B6805
:10D350001A070CD10A4B186800F0F003302B08D0E4
:10D3600000F0E000A0F1400358425841704700200F
:10D3700070470120704700BFE00F00F0E40F00F09D
:10D38000E80F00F0094B1B78062B0CD1084B1B68EB
:10D390001A0708D1074B186800F0F000A0F130031D
:10D3A0005842584170470020704700BFE00F00F01E
:10D3B000E40F00F0E80F00F008B5FFF7E3FF10B14D
:10D3C000684B694A1A60FFF7BDFF28B1674B684A8E
:10D3D0001B68C3F342331360FFF7D4FF20B1654AE3
:10D3E000D36823F08073D360FFF7ACFF40B14FF0F8
:10D3F00080430022C3F80C21C3F81021C3F838255C
:10D40000FFF7C0FF10B15C4B03221A60FFF7BAFFB1
:10D4100040B15A4B05221A6001229A6700229A6095
:10D420003F225A60564B1B78062B09D1554B1B687F
:10D430001B0705D1544B1B6803F0F003502B48D059
:10D44000524AD2F8883043F47003C2F88830BFF3F0
:10D450004F8FBFF36F8F4FF01023D3F80022002AB5
:10D4600003DBD3F80432002B2FDA494B0122C3F837
:10D470000425D3F80024002AFBD04FF010221521F8
:10D48000C2F80012D3F80024002AFBD04FF010237A
:10D4900015223F49C3F80422D1F800243C4B002A4E
:10D4A000FAD00022C3F80425D3F80024002AFBD0C8
:10D4B000BFF34F8F3549374BCA6802F4E06213431C
:10D4C000CB60BFF34F8F00BFFDE7334B334A1A6089
:10D4D00008BD4FF08052324BD2F80414C3F8201527
:10D4E000D2F80814C3F82415D2F80C14C3F8281580
:10D4F000D2F81014C3F82C15D2F81414C3F8301550
:10D50000D2F81814C3F83415D2F81C14C3F8401517
:10D51000D2F82014C3F84415D2F82414C3F84815DF
:10D52000D2F82814C3F84C15D2F82C14C3F85015AF
:10D53000D2F83014C3F85415D2F83414C3F8601577
:10D54000D2F83814C3F86415D2F83C14C3F868153F
:10D55000D2F84014C3F86C15D2F84424C3F87025EF
:10D560006EE700BF74C007400DF0ADBA4402001072
:10D570003C050040F0ED00E0A005004010560040E2
:10D58000E00F00F0E40F00F0E80F00F000ED00E025
:10D5900000E001400400FA05682C00200090D00350
:10D5A00000C0004052DF704710DF704760DF7047F7
:10D5B00061DF704708B5FCF7DDFF08BD2DE9F743D3
:10D5C000224B1B78002B3ED0214E224F35683C6801
:10D5D000DFF88480DFF88490B5FA85F5B4FA84F436
:10D5E0006D0964096DBB01A8FFF7DCFF052807D0B2
:10D5F00010B1FCF7B1FF04E033680198984700E0F0
:10D600000125DCB9B8F80030ADF80430D9F80030A5
:10D6100001A91846FFF7CCFF0528044608D018B129
:10D62000FCF79AFF002404E03A681846904700E0AF
:10D630000124002DD7D0002CD4D004E0002DD2D06E
:10D6400001E0002CDED003B0BDE8F08320380020DC
:10D65000283800202C3800202238002024380020D0
:10D6600010B5C1B18C0716D1134C216013490A8043
:10D67000134A14491360FFF797FFA8B9124B1349D7
:10D6800001221A7091F81633C3F34113934204D860
:10D6900042F202030DE007230BE00D4A93682BB121
:10D6A000136843F480031360034602E04FF48002E2
:10D6B0000A60184610BD00BF243800202238002020
:10D6C00030380020B5D507002038002000E100E008
:10D6D0003438002018B1034B1860002070470E202A
:10D6E000704700BF2838002008B5074B1B682BB1D6
:10D6F000984738B1BDE80840FCF72EBFBDE80840A8
:10D70000FFF75CBF08BD00BF3038002070B514467D
:10D7100005460E46142200212046FCF713FF227B0B
:10D7200026720021012361F300022380216122730C
:10D73000657205B1A372002070BD000007B5054BEE
:10D74000019302A9019B41F8083DFFF72FFF03B0A9
:10D750005DF804FB002C002008B511B10020FCF797
:10D76000FBFEBDE80840FFF729BF00000021024A88
:10D770000846FCF735BF00BF59D707000649074ADE
:10D78000074B9B1A03DD043BC858D050FBDCFFF766
:10D7900013FEFCF763FE000054D80700002C0020A5
:10D7A000782C0020FEE7FEE7FEE7FEE7FEE7FEE757
:10D7B000FEE7FEE7FEE7FEE710B5431E0A4491428E
:10D7C00004D011F8014B03F8014FF8E710BD000039
:10D7D000F8B500BFF8BC08BC9E467047F8B500BF5E
:10D7E000F8BC08BC9E467047002C0020102D00207D
:10D7F0000C0B05070000000000E0D70130330020CB
:10D8000006000000080000000700000005000000FE
:10D8100000000000000000000000D601060000002B
:10D8200006000000080000000700000005000000DE
:10D8300000000000000000000000D601060000000B
:0CD84000010000079834002000000000E8
:08D84C0010CCFF7F0100000079
:10D8540000000000000000000000000000000000C4
:10D8640000000000000000000000000000000000B4
:10D8740000000000000000000000000000000000A4
:10D884000000000000000000000000000000000094
:10D894000000000000000000000000000000000084
:10D8A4000000000000000000000000000000000074
:10D8B40035BF0700A5BF07000090D00325A40700CB
:08D8C40001A4070000000000B0
:020000020000FC
:020000041000EA
:0410140000A0070031
:0410180000E00700ED
:040000037000D77D35
:00000001FF
